:040000001DEF00F000
:1000080057820E0133AB0BEF00F00DEF00F019EF44
:1000180000F05404D8A413EF00F015EF00F019EF26
:1000280000F0524A532A40EC14F00E01339B5792C9
:1000380011007BEF13F028C0D9FF29C0DAFFDECF0B
:100048002AF0DDCF2BF02AC001F02BC002F0036AA2
:10005800046A000E5EEC0BF001C00FF002C010F055
:1000680003C011F004C012F020EE06F02850D92683
:100078002950DA22DECF2CF0DDCF2DF02CC001F094
:100088002DC002F0036A046A000E5EEC0BF001C09A
:1000980013F002C014F003C015F004C016F0A4EC6D
:1000A80008F00FC02EF010C02FF011C030F012C0B1
:1000B80031F020EE02F02850D9262950DA22DECF7E
:1000C8002AF0DDCF2BF02AC001F02BC002F0036A22
:1000D800046A000E5EEC0BF001C00FF002C010F0D5
:1000E80003C011F004C012F020EE06F02850D92603
:1000F8002950DA22DECF2CF0DDCF2DF02CC001F014
:100108002DC002F0036A046A000E5EEC0BF001C019
:1001180013F002C014F003C015F004C016F0A4ECEC
:1001280008F00FC032F010C033F011C034F012C024
:1001380035F020EE04F02850D9262950DA22DECFF7
:100148002AF0DDCF2BF02AC001F02BC002F0036AA1
:10015800046A000E5EEC0BF001C00FF002C010F054
:1001680003C011F004C012F020EE06F02850D92682
:100178002950DA22DECF2CF0DDCF2DF02CC001F093
:100188002DC002F0036A046A000E5EEC0BF001C099
:1001980013F002C014F003C015F004C016F0A4EC6C
:1001A80008F00FC036F010C037F011C038F012C098
:1001B80039F0000E056E000E066EC80E076E420E70
:1001C800086E2EC001F02FC002F030C003F031C01D
:1001D80004F08FEC06F001C01AF002C01BF003C057
:1001E8001CF004C01DF08DEC0DF01AC03CF01BC0D3
:1001F8003DF0000E056E000E066EC80E076E420E2C
:10020800086E32C001F033C002F034C003F035C0CC
:1002180004F08FEC06F001C01AF002C01BF003C016
:100228001CF004C01DF08DEC0DF01AC03EF01BC090
:100238003FF0000E056E000E066EC80E076E420EE9
:10024800086E36C001F037C002F038C003F039C07C
:1002580004F08FEC06F001C01AF002C01BF003C0D6
:100268001CF004C01DF08DEC0DF01AC03AF01BC054
:100278003BF03D5009E1970E3C5CD8A046EF01F0F9
:1002880048EF01F084EF01F03F5007E1500E3E5C6B
:10029800D8B051EF01F053EF01F084EF01F03B507B
:1002A80007E1280E3A5CD8B05CEF01F05EEF01F090
:1002B80084EF01F020EE06F02850D9262950DA22E2
:1002C800010EDB5009E1C90EDE5CD8A06EEF01F02B
:1002D80070EF01F084EF01F020EE06F02850D926E7
:1002E8002950DA22900EDE5C010EDE58D8B07FEF7E
:1002F80001F081EF01F084EF01F0020E68EF03F0E6
:100308003D5009E13D0E3C5CD8A08DEF01F08FEF28
:1003180001F0CFEF01F03D5007E1640E3C5CD8B02E
:1003280098EF01F09AEF01F0CFEF01F03F5009E1AB
:100338003D0E3E5CD8A0A3EF01F0A5EF01F0CFEF92
:1003480001F03F5007E1640E3E5CD8B0AEEF01F01B
:10035800B0EF01F0CFEF01F03B5009E16F0E3A5CCE
:10036800D8A0B9EF01F0BBEF01F0CFEF01F020EE1C
:1003780006F02850D9262950DA22260EDE5C020E15
:10038800DE58D8B0CAEF01F0CCEF01F0CFEF01F0A2
:10039800030E68EF03F03D5007E1460E3C5CD8B011
:1003A800D8EF01F0DAEF01F005EF02F03F5009E174
:1003B800650E3E5CD8A0E3EF01F0E5EF01F005EF34
:1003C80002F03B5007E1820E3A5CD8B0EEEF01F044
:1003D800F0EF01F005EF02F020EE06F02850D926E4
:1003E8002950DA22010EDB5007E1B40EDE5CD8B0EA
:1003F80000EF02F002EF02F005EF02F0040E68EFE2
:1004080003F03D5009E1650E3C5CD8A00EEF02F008
:1004180010EF02F045EF02F03F5007E1550E3E5C49
:10042800D8B019EF02F01BEF02F045EF02F03B5095
:1004380009E1560E3A5CD8A024EF02F026EF02F04C
:1004480045EF02F020EE06F02850D9262950DA228E
:100458008B0EDE5C020EDE58D8A035EF02F037EFC7
:1004680002F045EF02F03A503E5C3B503F58D8B09E
:1004780040EF02F042EF02F045EF02F0050E68EFA0
:1004880003F03D5009E1650E3C5CD8A04EEF02F048
:1004980050EF02F085EF02F03D5007E1780E3C5C2A
:1004A800D8B059EF02F05BEF02F085EF02F03F5051
:1004B80009E1510E3E5CD8A064EF02F066EF02F04D
:1004C80085EF02F03B5007E15F0E3A5CD8B06FEF62
:1004D80002F071EF02F085EF02F020EE06F02850EE
:1004E800D9262950DA22A30EDE5C020EDE58D8B0D7
:1004F80080EF02F082EF02F085EF02F0060E68EF5F
:1005080003F03D5009E17E0E3C5CD8A08EEF02F06E
:1005180090EF02F0BAEF02F03F5007E1550E3E5C53
:10052800D8B099EF02F09BEF02F0BAEF02F03B501F
:1005380007E1550E3A5CD8B0A4EF02F0A6EF02F03E
:10054800BAEF02F020EE06F02850D9262950DA2218
:10055800910EDE5C010EDE58D8A0B5EF02F0B7EFC1
:1005680002F0BAEF02F0070E68EF03F03D5007E122
:100578005A0E3C5CD8B0C3EF02F0C5EF02F000EFB2
:1005880003F03F5009E1650E3E5CD8A0CEEF02F0C3
:10059800D0EF02F000EF03F03B5009E16F0E3A5C38
:1005A800D8A0D9EF02F0DBEF02F000EF03F020EE65
:1005B80006F02850D9262950DA22910EDE5C010E69
:1005C800DE58D8A0EAEF02F0ECEF02F000EF03F0FB
:1005D80020EE06F02850D9262950DA22BC0EDE5C1F
:1005E800020EDE58D8B0FBEF02F0FDEF02F000EF8C
:1005F80003F0080E68EF03F03D5009E1530E3C5C30
:10060800D8A009EF03F00BEF03F067EF03F03D50BC
:1006180007E16B0E3C5CD8B014EF03F016EF03F063
:1006280067EF03F03F5009E1530E3E5CD8A01FEF7F
:1006380003F021EF03F067EF03F03F5007E16B0E83
:100648003E5CD8B02AEF03F02CEF03F067EF03F01D
:100658003B5009E1530E3A5CD8A035EF03F037EF71
:1006680003F067EF03F03B5007E16B0E3A5CD8B03C
:1006780040EF03F042EF03F067EF03F020EE06F0DF
:100688002850D9262950DA22BD0EDE5C020EDE582B
:10069800D8A051EF03F053EF03F067EF03F020EE1B
:1006A80006F02850D9262950DA22B00EDE5C040E56
:1006B800DE58D8B062EF03F064EF03F067EF03F0A1
:1006C800090E68EF03F00A0E120000EC14F02BEC90
:1006D80014F0000E026EC70E016EDFEC11F0000E72
:1006E80000017B6FC70E7A6F5BEC13F094EC13F08C
:1006F800000E0001A16F000EA06F000EA36F000E88
:10070800A26F000EA56F000EA46F000EA76F000E5B
:10071800A66F000E916F000E906F000E936F000E83
:10072800926F000E956F000E946F000E976F000E7B
:10073800966F000E996F000E986F000E9B6F000E5B
:100748009A6F000E9D6F000E9C6F000E9F6F000E3B
:100758009E6F84967C9686840E01B4957C9E849EBA
:100768000DEC14F0B9EF03F07C8EF0EC13F0410EB1
:10077800015C9C0E0258D8B0C4EF03F0C6EF03F03A
:10078800B8EF03F0809288927C9684967C9884983F
:10079800000E00017E6F010E7F6FAA0E836F0F0E91
:1007A800846FA60E856F0F0E866F7AC081F07BC0AE
:1007B80082F0000E876F010E886F7AC08AF07BC0C6
:1007C8008BF0250E8C6F0F0E8D6F210E8E6F0F0E16
:1007D8008F6F7E8E7F82798886840E01B4957C9E89
:1007E800849E8686B497809688968EB4FEEF03F032
:1007F80000EF04F0F9EF03F07C8E9AEC12F005C0DC
:1008080090F006C091F012EC13F005C092F006C00B
:1008180093F0C2EC12F005C094F006C095F0EAEC33
:1008280012F005C096F006C097F0290E4D6E960E90
:100838004C6E7F0EE82EFED74C2EFCD74D2EFAD7E5
:1008480000F07C9E8EB62BEF04F02DEF04F026EF1F
:1008580004F080869AEC12F005C098F006C099F072
:1008680012EC13F005C09AF006C09BF0C2EC12F02F
:1008780005C09CF006C09DF0EAEC12F005C09EF0A1
:1008880006C09FF0290E4D6E960E4C6E7F0EE82E18
:10089800FED74C2EFCD74D2EFAD700F080967E0E50
:1008A800196E000E1A6E870E1B6E000E1C6E010E5E
:1008B8001D6E57EC10F0030E0F6EE80E0E6E96C00C
:1008C8000CF097C00DF027EC12F0010E0C2400017B
:1008D8007C6F000E0D207D6FEAEC12F000019E5136
:1008E800055C0C6E9F5106580D6E7CC00EF07DC0E5
:1008F8000FF027EC12F00CC0A6F00DC0A7F0B00E58
:100908000001A65D040EA759D8B08DEF04F08FEF53
:1009180004F053EF04F0A75109E11F0EA65DD8A01B
:1009280098EF04F09AEF04F053EF04F052C001F08E
:1009380053C002F0D0EC13F0010E1AEC14F07E0E46
:100948001E6E000E1F6E870E206E000E216E010EA9
:10095800226EBDEC10F0110E4D6E3C0E4C6ECB0E9F
:10096800E82EFED74C2EFCD74D2EFAD700F07E0E7F
:100978001E6E000E1F6E870E206E000E216E010E79
:10098800226EBDEC10F0110E4D6E3C0E4C6ECB0E6F
:10099800E82EFED74C2EFCD74D2EFAD700F0030ECA
:1009A8000F6EE80E0E6E90C00CF091C00DF027ECA3
:1009B80012F0010E0C2400017C6F000E0D207D6FDB
:1009C8009AEC12F000019851055C0C6E995106588A
:1009D8000D6E7CC00EF07DC00FF027EC12F00CC03D
:1009E800A0F00DC0A1F0030E0F6EE80E0E6E92C0BF
:1009F8000CF093C00DF027EC12F0010E0C2400014E
:100A08007C6F000E0D207D6F12EC13F000019A51DF
:100A1800055C0C6E9B5106580D6E7CC00EF07DC0B7
:100A28000FF027EC12F00CC0A2F00DC0A3F0030EDB
:100A38000F6EE80E0E6E94C00CF095C00DF027EC0A
:100A480012F0010E0C2400017C6F000E0D207D6F4A
:100A5800C2EC12F000019C51055C0C6E9D510658C9
:100A68000D6E7CC00EF07DC00FF027EC12F00CC0AC
:100A7800A4F00DC0A5F0030E0F6EE80E0E6E96C022
:100A88000CF097C00DF027EC12F0010E0C240001B9
:100A98007C6F000E0D207D6FEAEC12F000019E5174
:100AA800055C0C6E9F5106580D6E7CC00EF07DC023
:100AB8000FF027EC12F00CC0A6F00DC0A7F0A00EA6
:100AC800286E000E296E1FEC00F00001A86F7E0E44
:100AD8001E6E000E1F6E870E206E000E216E000E19
:100AE800226EBDEC10F00A0E0001A8617EEF05F041
:100AF80080EF05F0A4EF05F020EE7EF000EE60F048
:100B0800080EDBCFEBFFE806FCE220EE87F000EEF4
:100B180069F0080EDBCFEBFFE806FCE2A00E726F6F
:100B2800000E736F900E746F000E756F980E766FCF
:100B3800000E776FA8C078F071EC0AF053EF04F05C
:100B48007E0E1E6E000E1F6E870E206E000E216E2A
:100B5800010E226E81EC11F0000E0001796F64EF36
:100B680006F0030E4D6E700E4C6E5C0EE82EFED72E
:100B78004C2EFCD74D2EFAD700D0030E0F6EE80E80
:100B88000E6E90C00CF091C00DF027EC12F0010E23
:100B98000C2400017C6F000E0D207D6F9AEC12F082
:100BA80000019851055C0C6E995106580D6E7CC079
:100BB8000EF07DC00FF027EC12F00CC0A0F00DC0B5
:100BC800A1F0030E0F6EE80E0E6E92C00CF093C0EB
:100BD8000DF027EC12F0010E0C2400017C6F000EC2
:100BE8000D207D6F12EC13F000019A51055C0C6E1C
:100BF8009B5106580D6E7CC00EF07DC00FF027EC9F
:100C080012F00CC0A2F00DC0A3F0030E0F6EE80E98
:100C18000E6E94C00CF095C00DF027EC12F0010E8A
:100C28000C2400017C6F000E0D207D6FC2EC12F0C9
:100C380000019C51055C0C6E9D5106580D6E7CC0E0
:100C48000EF07DC00FF027EC12F00CC0A4F00DC020
:100C5800A5F0030E0F6EE80E0E6E96C00CF097C04E
:100C68000DF027EC12F0010E0C2400017C6F000E31
:100C78000D207D6FEAEC12F000019E51055C0C6EB0
:100C88009F5106580D6E7CC00EF07DC00FF027EC0A
:100C980012F00CC0A6F00DC0A7F00A0E0001A819AA
:100CA800D8A459EF06F05BEF06F063EF06F0A00E4C
:100CB800286E000E296E1FEC00F00001A86F792B3A
:100CC800130E79656AEF06F06CEF06F0B5EF05F0E4
:100CD8000A0EA819D8B473EF06F075EF06F077EF8F
:100CE80006F080EF05F020EE7EF000EE37F0080EFB
:100CF800DBCFEBFFE806FCE220EE87F000EE40F0E9
:100D0800080EDBCFEBFFE806FCE2EEEC0CF053EF4D
:100D180004F01DEF00F00450800B0D6E0450042405
:100D2800136E03AE9AEF06F09CEF06F09DEF06F007
:100D380013801350D8B4A3EF06F0A5EF06F0B8EF70
:100D480006F01328D8A4ABEF06F0ADEF06F0B5EF28
:100D580006F0000E016E000E026E000E036E000E0D
:100D6800046E038EC0EF06F0000E016E000E026ED8
:100D7800000E036E000E046E0850800B0D1A08500A
:100D88000824126E07AECBEF06F0CDEF06F0CEEFDB
:100D980006F012801250D8B4D4EF06F0D6EF06F061
:100DA800E9EF06F01228D8A4DCEF06F0DEEF06F033
:100DB800E6EF06F0000E056E000E066E000E076EDA
:100DC800000E086E078EF1EF06F0000E056E000E9D
:100DD800066E000E076E000E086E1250D8B4F7EFBC
:100DE80006F0F9EF06F001EF07F01350D8A4FFEF73
:100DF80006F001EF07F00BEF07F0000E016E000E92
:100E0800026E000E036E000E046EA3EF08F007508A
:100E18000102F3CF18F0F4CF19F018500E6E0F6AD4
:100E2800106A116A1950146E156A166A176A065004
:100E38000202F3CF18F0F4CF19F018500E26000E66
:100E48000F221022112219501426000E15221622E4
:100E5800172205500302F3CF18F0F4CF19F01850F9
:100E68000E26000E0F221022112219501426000EF1
:100E780015221622172210C011F00FC010F00EC054
:100E88000FF00E6A05500202F3CF18F0F4CF19F0F4
:100E980018500E2619500F22000E1022000E112293
:100EA80006500102F3CF18F0F4CF19F018500E26AF
:100EB80019500F22000E1022000E112210C011F03E
:100EC8000FC010F00EC00FF00E6A05500102F3CFEC
:100ED80018F0F4CF19F018500E2619500F22000EF2
:100EE8001022000E112207500202F3CF18F0F4CF9F
:100EF80019F01850142619501522000E1622000E4B
:100F0800172206500302F3CF18F0F4CF19F0185047
:100F1800142619501522000E1622000E172207500B
:100F28000302F3CF18F0F4CF19F01850096E1950D6
:100F38000A6E0B6A0C6A0BC00CF00AC00BF009C0F1
:100F48000AF0096A095014260A5015220B50162275
:100F58000C5017220EC009F00FC00AF010C00BF099
:100F680011C00CF0190EBEEF07F0D8900C320B32FE
:100F78000A320932E82EB9EF07F0095014260A5050
:100F880015220B5016220C50172210C011F00FC05A
:100F980010F00EC00FF00E6A125013C009F00A6A62
:100FA8000926000E0A22820E0924186EFF0E0A2056
:100FB800196EF4EF07F0D890143615361636173632
:100FC80011AEE9EF07F0EBEF07F0ECEF07F0148054
:100FD800D8900E360F36103611361806D8A01906D6
:100FE80016AEF9EF07F0FBEF07F0DFEF07F0000EA2
:100FF800126E11AE02EF08F004EF08F028EF08F0C7
:10100800FF0E0E14096EFF0E0F140A6EFF0E101459
:101018000B6E7F0E11140C6E09500A100B100C1079
:10102800D8B419EF08F01BEF08F01FEF08F0010E15
:10103800126E28EF08F014A024EF08F026EF08F04D
:1010480028EF08F01BEF08F01250D8B42EEF08F084
:1010580030EF08F054EF08F0010E1426000E1522A8
:101068001622172217A03BEF08F03DEF08F054EFC7
:1010780008F014C009F015C00AF016C00BF017C02C
:101088000CF00C340C320B320A32093209C014F05D
:101098000AC015F00BC016F00CC017F0184A192A30
:1010A80019BE5FEF08F0195008E11828D8A05FEFC3
:1010B80008F061EF08F06BEF08F0000E146E000EF8
:1010C800156E800E166E7F0E176E99EF08F019BE1A
:1010D80078EF08F0195006E11804D8B076EF08F058
:1010E80078EF08F084EF08F0000E146E000E156E0D
:1010F800000E166E000E176E000E0D6E99EF08F0BA
:1011080018C013F0FF0E1416FF0E15167F0E1616D4
:10111800000E171613A093EF08F095EF08F096EF5E
:1011280008F0168ED8901330176E0D50171214C091
:1011380001F015C002F016C003F017C004F0120049
:101148001250800B1F6E12501224266E11AEAFEF94
:1011580008F0B1EF08F0B2EF08F026802650D8B4B6
:10116800B8EF08F0BAEF08F0CFEF08F02628D8A4B7
:10117800C0EF08F0C2EF08F0CAEF08F0000E0F6EDB
:10118800000E106E000E116E000E126E118E000E03
:10119800126ED7EF08F0000E0F6E000E106E000EE4
:1011A800116E000E126E1650800B1F1A1650162460
:1011B800276E15AEE2EF08F0E4EF08F0E5EF08F06F
:1011C80027802750D8B4EBEF08F0EDEF08F002EFD6
:1011D80009F02728D8A4F3EF08F0F5EF08F0FDEFA1
:1011E80008F0000E136E000E146E000E156E000E41
:1011F800166E158E000E166E0AEF09F0000E136EAD
:10120800000E146E000E156E000E166E135014109C
:1012180015101610D8A413EF09F015EF09F02DEFEB
:1012280009F0000E0F6E000E106E000E116E000E0B
:10123800126E800E11127F0E12121F5012120FC062
:101248000FF010C010F011C011F012C012F070EFC2
:101258000AF02650D8A433EF09F035EF09F03FEF34
:1012680009F0000E0F6E000E106E000E116E000ECB
:10127800126E70EF0AF0275026C017F0186A175E32
:10128800000E185A7F0E1724206E000E1820216EAB
:101298000FC01BF010C01CF011C01DF012C01EF0D2
:1012A800000E0F6E000E106E000E116E000E126E04
:1012B800000E226E000E236E000E246E000E256EA8
:1012C800000E276EA0EF09F02750D8B46EEF09F092
:1012D80070EF09F087EF09F0D8901B361C361D36E1
:1012E8001E36D8900F3610361136123625AE7FEFDF
:1012F80009F081EF09F082EF09F00F80D8902236CB
:1013080023362436253613501B5C14501C581550B0
:101318001D5816501E58D8A094EF09F096EF09F002
:101328009FEF09F0258C13501B5E14501C5A155062
:101338001D5A16501E5A272A190E2764A6EF09F0BF
:10134800A8EF09F068EF09F01B501C101D101E10C3
:10135800D8B4B1EF09F0B3EF09F0CBEF09F0228070
:10136800CBEF09F0D8900F3610361136123625AE6D
:10137800C0EF09F0C2EF09F0C3EF09F00F80D89071
:1013880022362336243625362006D8A0210611AE6B
:10139800D0EF09F0D2EF09F0B6EF09F0000E276E92
:1013A80025AED9EF09F0DBEF09F0FFEF09F0FF0EEA
:1013B8002214176EFF0E2314186EFF0E2414196ED4
:1013C8007F0E25141A6E1750181019101A10D8B459
:1013D800F0EF09F0F2EF09F0F6EF09F0010E276ED1
:1013E800FFEF09F00FA0FBEF09F0FDEF09F0FFEFA9
:1013F80009F0F2EF09F02750D8B405EF0AF007EF2B
:101408000AF02BEF0AF0010E0F26000E102211220F
:10141800122212A012EF0AF014EF0AF02BEF0AF0D2
:101428000FC017F010C018F011C019F012C01AF050
:101438001A341A3219321832173217C00FF018C07E
:1014480010F019C011F01AC012F0204A212A21BE4A
:1014580036EF0AF0215008E12028D8A036EF0AF02C
:1014680038EF0AF043EF0AF0000E216E2068000EF4
:101478000F6E000E106E000E116E000E126E21BE61
:1014880050EF0AF0215006E12004D8B04EEF0AF0E0
:1014980050EF0AF05EEF0AF0000E216E000E206E8B
:1014A800000E0F6E000E106E000E116E000E126E02
:1014B800000E1F6E20C026F026A065EF0AF067EF29
:1014C8000AF06AEF0AF0118E6BEF0AF0119ED890BD
:1014D8002630126E21EF09F01200020E0001781971
:1014E800D8A479EF0AF07BEF0AF089EF0AF0600ED2
:1014F8001E6E000E1F6E690E206E000E216E87ECA8
:101508000EF08082020E1AEC14F0030E0001781916
:10151800D8A491EF0AF093EF0AF0A0EF0AF0600E5A
:101528001E6E000E1F6E690E206E000E216E10ECEE
:101538000EF0030E1AEC14F0040E00017819D8A46A
:10154800A8EF0AF0AAEF0AF0B7EF0AF0600E1E6ED5
:10155800000E1F6E690E206E000E216E70EC0FF0EB
:10156800040E1AEC14F0050E00017819D8A4BFEF88
:101578000AF0C1EF0AF0DDEF0AF0600E1E6E000EF1
:101588001F6E690E206E000E216E000E226E81EC19
:1015980011F0600E1E6E000E1F6E690E206E000E9A
:1015A800216E87EC0EF0070E1AEC14F0020E1AECFE
:1015B80014F0060E00017819D8A4E5EF0AF0E7EF59
:1015C8000AF003EF0BF0600E1E6E000E1F6E690E20
:1015D800206E000E216E000E226E81EC11F0600E5E
:1015E8001E6E000E1F6E690E206E000E216E10EC2E
:1015F8000EF0070E1AEC14F0030E1AEC14F0070E96
:1016080000017819D8A40BEF0BF00DEF0BF01AEFCF
:101618000BF0600E1E6E000E1F6E690E206E000E1F
:10162800216EFCEC0EF0050E1AEC14F0080E000109
:101638007819D8A422EF0BF024EF0BF031EF0BF060
:10164800600E1E6E000E1F6E690E206E000E216E5B
:10165800E4EC0FF0060E1AEC14F0090E00017819EC
:10166800D8A439EF0BF03BEF0BF05DEF0BF07C8665
:101678007C88600E1E6E000E1F6E690E206E000EB6
:10168800216E010E226EBDEC10F020EE60F000EE2F
:1016980037F0080EDBCFEBFFE806FCE220EE69F03E
:1016A80000EE40F0080EDBCFEBFFE806FCE2EEECC4
:1016B8000CF01200096E0950D8B465EF0BF067EF13
:1016C8000BF089EF0BF004BE6EEF0BF06CEF0BF034
:1016D80089EF0BF001C005F002C006F003C007F067
:1016E80004C008F0051E061E071E081E052A000E67
:1016F80006220722082205C00BF006C00CF007C01E
:101708000DF008C00EF091EF0BF001C00BF002C015
:101718000CF003C00DF004C00EF0015002100310CD
:101728000410D8A49AEF0BF09CEF0BF0A6EF0BF087
:10173800000E016E000E026E000E036E000E046EA7
:1017480037EF0CF0960E0A6EB0EF0BF00A2AD8901D
:101758000E320D320C320B32000E0B14056E000ED9
:101768000C14066E000E0D14076EFE0E0E14086E95
:101778000550061007100810D8A4C5EF0BF0C7EFE6
:101788000BF0AAEF0BF0D5EF0BF00A2A010E0B268F
:10179800000E0C220D220E22D8900E320D320C3281
:1017A8000B32000E0B14056E000E0C14066E000EA4
:1017B8000D14076EFF0E0E14086E05500610071064
:1017C8000810D8A4EAEF0BF0ECEF0BF0C9EF0BF020
:1017D800F4EF0BF00A06D8900B360C360D360E36A1
:1017E8000DBEF9EF0BF0FBEF0BF003EF0CF0020E60
:1017F8000A6001EF0CF003EF0CF0EEEF0BF00AB00B
:1018080008EF0CF00AEF0CF00BEF0CF00D9ED890DF
:101818000A320AC005F0066A076A086A05C008F0B5
:10182800076A066A056A05500B1206500C12075023
:101838000D1208500E120950D8B425EF0CF027EFFE
:101848000CF02FEF0CF004BE2EEF0CF02CEF0CF088
:101858002FEF0CF00E8E0BC001F00CC002F00DC083
:1018680003F00EC004F0120020EE02F01350D92647
:101878001450DA22DF50D8B444EF0CF046EF0CF0E5
:101888007AEF0CF013C0D9FF14C0DAFFDF50156EE1
:101898001550016E026A20EE03F01350D926145039
:1018A800DA22DECF03F0DDCF04F0BDEC13F001C087
:1018B8000CF002C00DF0000E0F6E640E0E6E27ECD9
:1018C80012F020EE03F01350D9261450DA22DF501C
:1018D800166E0C50165C176E20EE03F01350D926C6
:1018E8001450DA22DF50186E9DEF0CF0000E176EC0
:1018F80013C0D9FF14C0DAFFDF50156E1550016E02
:10190800026A20EE03F01350D9261450DA22DECFF3
:1019180003F0DDCF04F0BDEC13F001C00CF002C001
:101928000DF0000E0F6E640E0E6E27EC12F00C50C8
:10193800186E20EE01F01350D9261450DA22DF5029
:10194800D8B4A9EF0CF0ABEF0CF0CDEF0CF020EE13
:1019580005F01350D9261450DA22DECF15F0DDCF6A
:1019680016F015C0D9FF16C0DAFF17C0DFFF20EE4A
:1019780007F01350D9261450DA22DECF15F0DDCF48
:1019880016F015C0D9FF16C0DAFF18C0DFFFEDEF5B
:101998000CF020EE05F01350D9261450DA22DECFD1
:1019A80015F0DDCF16F015C0D9FF16C0DAFF18C044
:1019B800DFFF20EE07F01350D9261450DA22DECFCD
:1019C80015F0DDCF16F015C0D9FF16C0DAFF17C025
:1019D800DFFF12007E9E7F9279985506560677EFB4
:1019E8000DF0000E5524D96EDA6A010EDA22DE04F3
:1019F800D8A401EF0DF003EF0DF041EF0DF0370E15
:101A0800196E000E1A6E400E1B6E000E1C6E61ECF5
:101A180012F0000E546E370E196E000E1A6E400E3C
:101A28001B6E000E1C6E000E1D6E57EC10F0550458
:101A3800556E5650020D000EF324D96E020EF42096
:101A4800DA6EDE50525C5350800A4B6EDE50800ACC
:101A58004B58D8A032EF0DF034EF0DF01DEF0DF01C
:101A68005606370E196E000E1A6E400E1B6E000ECB
:101A78001C6E61EC12F077EF0DF0000E5524D96E54
:101A8800DA6A010EDA22DE04D8B44DEF0DF04FEF1A
:101A98000DF077EF0DF020EE37F000EE24F0080E91
:101AA800DBCFEBFFE806FCE220EE40F000EE2DF085
:101AB800080EDBCFEBFFE806FCE2000E5524D96EDA
:101AC800DA6A010EDA22DF5020EC11F0370E1E6EB2
:101AD800000E1F6E400E206E000E216E010E226E4B
:101AE80081EC11F0550655BE7EEF0DF07CEF0DF040
:101AF800F5EF0CF07C8E290E4A6E960E496E7F0E1D
:101B0800E82EFED7492EFCD74A2EFAD700F003005C
:101B180012001C341D34236E2350D8A496EF0DF008
:101B280098EF0DF0A2EF0DF0000E1A6E000E1B6E6E
:101B3800000E1C6E000E1D6E0FEF0EF01AC01EF088
:101B48001BC01FF01CC020F01DC021F0200EB2EFFA
:101B58000DF0D890213220321F321E32E82EADEF20
:101B68000DF01E50226E1C8EFF0E1A16FF0E1B164D
:101B7800FF0E1C16000E1D16960E235E23BEC9EF1F
:101B88000DF0C7EF0DF0DFEF0DF02350800A970F2F
:101B9800D8B0D1EF0DF0D3EF0DF0D5EF0DF098EFF1
:101BA8000DF0D8901D321C321B321A32233ED5EF6D
:101BB8000DF0F7EF0DF01F0E2364E5EF0DF0E7EFE2
:101BC8000DF0EFEF0DF098EF0DF0D8901A361B36A8
:101BD8001C361D3623062350D8A4F5EF0DF0F7EF79
:101BE8000DF0E9EF0DF02250D8B4FDEF0DF0FFEF46
:101BF8000DF007EF0EF01D1E1C1E1B1E1A6C000EAA
:101C08001B221C221D221AC01AF01BC01BF01CC06C
:101C18001CF01DC01DF012001EC019F01FC01AF0E4
:101C280020C01BF021C01CF061EC12F020EE01F086
:101C38001E50D9261F50DA22000EDF6E20EE01F06A
:101C48002050D9262150DA22010EDF6E1EC0D9FF9E
:101C58001FC0DAFF140EDF6E20C0D9FF21C0DAFFE3
:101C6800140EDF6E56EF0EF0680E226EE40EE82EAC
:101C7800FED7222EFCD700D01EC0D9FF1FC0DAFF26
:101C8800DF2A20C0D9FF21C0DAFFDF2A1EC013F0E7
:101C98001FC014F038EC0CF020C013F021C014F071
:101CA80038EC0CF01EC0D9FF1FC0DAFF320EDE1868
:101CB800D8A461EF0EF063EF0EF038EF0EF020C0FD
:101CC800D9FF21C0DAFF320EDE18D8A46EEF0EF06D
:101CD80070EF0EF038EF0EF0150E236E4B0E226EDD
:101CE800BE0EE82EFED7222EFCD7232EFAD700D020
:101CF8001EC019F01FC01AF020C01BF021C01CF034
:101D080061EC12F012001EC019F01FC01AF020C0BA
:101D18001BF021C01CF061EC12F020EE01F01E5007
:101D2800D9261F50DA22010EDF6E20EE01F0205076
:101D3800D9262150DA22000EDF6E1EC0D9FF1FC03F
:101D4800DAFF140EDF6E20C0D9FF21C0DAFF140EAF
:101D5800DF6ECDEF0EF0680E226EE40EE82EFED791
:101D6800222EFCD700D01EC0D9FF1FC0DAFFDF2A01
:101D780020C0D9FF21C0DAFFDF2A1EC013F01FC020
:101D880014F038EC0CF020C013F021C014F038EC3B
:101D98000CF01EC0D9FF1FC0DAFF330EDF60D7EF8B
:101DA8000EF0D9EF0EF0E5EF0EF020C0D9FF21C0FC
:101DB800DAFF320EDF64E3EF0EF0E5EF0EF0AFEF7F
:101DC8000EF0120E236E0C0E226E950EE82EFED724
:101DD800222EFCD7232EFAD700F01EC019F01FC000
:101DE8001AF020C01BF021C01CF061EC12F01200A8
:101DF8001EC019F01FC01AF020C01BF021C01CF033
:101E080061EC12F020EE01F01E50D9261F50DA22A4
:101E1800010EDF6E20EE01F02050D9262150DA2283
:101E2800000EDF6E1EC0D9FF1FC0DAFF140EDF6E72
:101E380020C0D9FF21C0DAFF140EDF6E41EF0FF08A
:101E4800D00E226ECA0EE82EFED7222EFCD71EC058
:101E5800D9FF1FC0DAFFDF2A20C0D9FF21C0DAFF6F
:101E6800DF2A1EC013F01FC014F038EC0CF020C09D
:101E780013F021C014F038EC0CF01EC0D9FF1FC0BD
:101E8800DAFF320EDF644BEF0FF04DEF0FF024EF67
:101E98000FF020C0D9FF21C0DAFF320EDF6457EF00
:101EA8000FF059EF0FF024EF0FF0150E236E4B0EC5
:101EB800226EBE0EE82EFED7222EFCD7232EFAD78E
:101EC80000D01EC019F01FC01AF020C01BF021C09E
:101ED8001CF061EC12F012001EC019F01FC01AF0BD
:101EE80020C01BF021C01CF061EC12F020EE01F0C4
:101EF8001E50D9261F50DA22010EDF6E20EE01F0A7
:101F08002050D9262150DA22000EDF6E1EC0D9FFDC
:101F18001FC0DAFF140EDF6E20C0D9FF21C0DAFF20
:101F2800140EDF6EB5EF0FF0D00E226ECA0EE82E3B
:101F3800FED7222EFCD71EC0D9FF1FC0DAFFDF2A2A
:101F480020C0D9FF21C0DAFFDF2A1EC013F01FC04E
:101F580014F038EC0CF020C013F021C014F038EC69
:101F68000CF01EC0D9FF1FC0DAFF320EDF64BFEFCE
:101F78000FF0C1EF0FF098EF0FF020C0D9FF21C08C
:101F8800DAFF320EDF64CBEF0FF0CDEF0FF098EFF2
:101F98000FF0230E236E180E226E2C0EE82EFED79D
:101FA800222EFCD7232EFAD700D01EC019F01FC04E
:101FB8001AF020C01BF021C01CF061EC12F01200D6
:101FC8001EC019F01FC01AF020C01BF021C01CF061
:101FD80061EC12F020EE01F01E50D9261F50DA22D3
:101FE800000EDF6E20EE01F02050D9262150DA22B3
:101FF800010EDF6E1EC0D9FF1FC0DAFF140EDF6EA0
:1020080020C0D9FF21C0DAFF140EDF6E29EF10F0CF
:10201800D00E226ECA0EE82EFED7222EFCD71EC086
:10202800D9FF1FC0DAFFDF2A20C0D9FF21C0DAFF9D
:10203800DF2A1EC013F01FC014F038EC0CF020C0CB
:1020480013F021C014F038EC0CF01EC0D9FF1FC0EB
:10205800DAFF320EDF6433EF10F035EF10F00CEFDB
:1020680010F020C0D9FF21C0DAFF320EDF643FEF45
:1020780010F041EF10F00CEF10F0180E236E8A0EDE
:10208800226EE80EE82EFED7222EFCD7232EFAD792
:102098001EC019F01FC01AF020C01BF021C01CF090
:1020A80061EC12F0120020EE02F01950D9261A50F5
:1020B800DA22010EDF6E20EE02F01B50D9261C50EA
:1020C800DA22010EDF6E20EE01F01950D9261A50DF
:1020D800DA221DC0DFFF20EE01F01B50D9261C506C
:1020E800DA221DC0DFFF96EF10F0D00E1E6ECA0E6A
:1020F800E82EFED71E2EFCD719C0D9FF1AC0DAFF6A
:10210800DF2A1BC0D9FF1CC0DAFFDF2A19C013F071
:102118001AC014F038EC0CF01BC013F01CC014F0FB
:1021280038EC0CF019C0D9FF1AC0DAFF150EDF60C1
:10213800A0EF10F0A2EF10F0AEEF10F01BC0D9FF27
:102148001CC0DAFF140EDF64ACEF10F0AEEF10F035
:1021580079EF10F05450D8A4B4EF10F0B6EF10F0A7
:10216800BCEF10F0000E536E000E526E010E546E4E
:1021780012001EC019F01FC01AF020C01BF021C0A9
:102188001CF061EC12F020EE01F01E50D9261F5011
:10219800DA2222C0DFFF20EE01F02050D92621509C
:1021A800DA2222C0DFFFF6EF10F0D00E236ECA0E3F
:1021B800E82EFED7232EFCD71EC0D9FF1FC0DAFF9A
:1021C800DF2A20C0D9FF21C0DAFFDF2A1EC013F0A2
:1021D8001FC014F038EC0CF020C013F021C014F02C
:1021E80038EC0CF01EC0D9FF1FC0DAFF370EDF64D1
:1021F80000EF11F002EF11F0D9EF10F020C0D9FF75
:1022080021C0DAFF370EDF640CEF11F00EEF11F08A
:10221800D9EF10F0D00E236ECA0EE82EFED7232E6B
:10222800FCD71EC019F01FC01AF020C01BF021C037
:102238001CF061EC12F01200366E020E3618D8A4AB
:1022480028EF11F02AEF11F034EF11F0240E1E6E72
:10225800000E1F6E2D0E206E000E216E10EC0EF07B
:10226800030E3618D8A43BEF11F03DEF11F047EFFD
:1022780011F0240E1E6E000E1F6E2D0E206E000E25
:10228800216E87EC0EF0040E3618D8A44EEF11F02C
:1022980050EF11F05AEF11F0240E1E6E000E1F6E53
:1022A8002D0E206E000E216E70EC0FF0050E361804
:1022B800D8A461EF11F063EF11F06DEF11F0240E67
:1022C8001E6E000E1F6E2D0E206E000E216EE4ECA9
:1022D8000FF0060E3618D8A474EF11F076EF11F04F
:1022E80080EF11F0240E1E6E000E1F6E2D0E206E54
:1022F800000E216EFCEC0EF0120020EE01F01E50D4
:10230800D9261F50DA2222C0DFFF20EE01F020502C
:10231800D9262150DA2222C0DFFFB0EF11F0D00E0B
:10232800236ECA0EE82EFED7232EFCD71EC0D9FF77
:102338001FC0DAFFDF2A20C0D9FF21C0DAFFDF2A59
:102348001EC013F01FC014F038EC0CF020C013F0BE
:1023580021C014F038EC0CF01EC0D9FF1FC0DAFF02
:102368003C0EDF64BAEF11F0BCEF11F093EF11F0FF
:1023780020C0D9FF21C0DAFF3C0EDF64C6EF11F0A0
:10238800C8EF11F093EF11F0250E246EEF0E236EB7
:10239800710EE82EFED7232EFCD7242EFAD700F094
:1023A8001EC019F01FC01AF020C01BF021C01CF07D
:1023B80061EC12F012007D947D987B9E7F9C859441
:1023C8008598839E879C050E0E01746F060E766FA6
:1023D800070E696F080E886FBD508F0B1009BD6E10
:1023E800E00EBE16BF50F00B0109BF6EC70EBC6EE3
:1023F800BD8E000EAA6E000EA66E000E0F01256F90
:10240800000E216FFC0EAD16F30EAD16CF0EAD16F5
:102418003F0EAD16AB88AB50F00B0C09AB6EAB8E14
:10242800A788A750F00B0C09A76EA78E26892651FE
:10243800F00B0C09266F268F22892251F00B0C090C
:10244800226F228F1200000E116E000E106E0E50B9
:102458000F10D8B432EF12F034EF12F05CEF12F034
:10246800010E126E3CEF12F0D8900E360F36122A7B
:102478000FAE41EF12F043EF12F038EF12F0D890A0
:10248800103611360E500C5C0F500D58D8A04FEF77
:1024980012F051EF12F056EF12F00E500C5E0F5082
:1024A8000D5A1080D8900F320E32122E43EF12F0D0
:1024B80010C00CF011C00DF0120081EF12F019C01D
:1024C800D9FF1AC0DAFFDF061BC0D9FF1CC0DAFF2C
:1024D800DF06150E1D6EC60EE82EFED71D2EFCD784
:1024E80000D019C013F01AC014F038EC0CF01BC05F
:1024F80013F01CC014F038EC0CF019C0D9FF1AC046
:10250800DAFFDF50D8B48BEF12F08DEF12F099EFAD
:1025180012F01BC0D9FF1CC0DAFFDF50D8A497EF18
:1025280012F099EF12F063EF12F012003BEC14F086
:10253800520E25EC14F0B60E25EC14F031EC14F024
:10254800530E25EC14F0010E3AEC13F0076E075009
:102558000A6E0B6A000E3AEC13F0076E0750096E0C
:10256800086A0A5008100A6E0B5009100B6E36ECF8
:1025780014F00AC005F00BC006F012003BEC14F092
:10258800520E25EC14F0B80E25EC14F031EC14F0D2
:10259800530E25EC14F0010E3AEC13F0076E0750B9
:1025A8000A6E0B6A000E3AEC13F0076E0750096EBC
:1025B800086A0A5008100A6E0B5009100B6E36ECA8
:1025C80014F00AC005F00BC006F012003BEC14F042
:1025D800520E25EC14F0B40E25EC14F031EC14F086
:1025E800530E25EC14F0010E3AEC13F0076E075069
:1025F8000A6E0B6A000E3AEC13F0076E0750096E6C
:10260800086A0A5008100A6E0B5009100B6E36EC57
:1026180014F00AC005F00BC006F012003BEC14F0F1
:10262800520E25EC14F0BA0E25EC14F031EC14F02F
:10263800530E25EC14F0010E3AEC13F0076E075018
:102648000A6E0B6A000E3AEC13F0076E0750096E1B
:10265800086A0A5008100A6E0B5009100B6E36EC07
:1026680014F00AC005F00BC006F01200036EA9ECC6
:1026780013F00E01DA87A9EC13F0D5CE04F0A9EC1B
:1026880013F00350D8B44BEF13F04FEF13F0026A76
:10269800022A50EF13F0026A023A02460E01DA519A
:1026A8000218DF0B0218DA6FDA890450120094EC72
:1026B80013F0010E036E000EE0EC13F03F0E056EF2
:1026C800550EE82EFED7052EFCD700F0030E036E3C
:1026D800000EE0EC13F0D50E036E010EE0EC13F0E3
:1026E8007E9E7F927998869E87928198120002EE4C
:1026F80000F0C80EEE6AE806FDE101EE00F0640E97
:10270800EE6AE806FDE10001A86B00EE4EF0090E46
:10271800EE6AE806FDE157905792000169EF03F071
:102728000E01D951F00B0809D96FD98B9F0ED66FBE
:10273800848A848CA79BA79D1D0E1D6F1E0E1C6F7F
:102748001C0E6F6F1B0E706F12000E01D8B5AFEF25
:1027580013F0B1EF13F0A9EF13F0DACE01F01F0E6A
:102768000116D8A4BAEF13F0BCEF13F0A9EF13F0D9
:10277800120001500302F3CF05F0F4CF06F0015028
:102788000402F350062602500302F350062605C041
:1027980001F006C002F01200000E546E5650020DF1
:1027A800000EF324D96E020EF420DA6E01C0DEFFAB
:1027B80002C0DDFF562A1200046E3BEC14F0520EE4
:1027C80025EC14F00450800925EC14F0035025EC96
:1027D80014F036EC14F01200608060B0F6EF13F0DD
:1027E800F8EF13F0F1EF13F064CF03F0046A03C0BD
:1027F80001F004C002F01200D6501F0B4009D66E3B
:10280800D688F00ED616D588050ED46ED368D58E28
:102818001200868C0E01B48D0F015899FC0E5817C2
:102828002E0E5F6F60946088608E1200016E000E3D
:102838005524D96EDA6A010EDA2201C0DFFF552A63
:102848001200026EA9EC13F002C0D5FE12000E01B0
:10285800298BF28CF29AF28E1200A9EC13F00E0179
:10286800DA831200A9EC13F00E01DA851200A9EC44
:1028780013F00E01DA811200050ED46ED36812002F
:020000040020DA
:10000000FF0FFF0FFF0FFF0FFF0FFF0FFF0FFF0F80
:020000040030CA
:0C000000AAFFFFFF9FFFFFFFFFFFFFFFB5
:00000001FF
