:0400000014EF00F009
:1000080050820E0133AB0BEF00F00DEF00F010EF54
:1000180000F00101DA4BDB2B0E01339B50921100EB
:10002800A4EF07F0B2EC07F0C1EC07F0000E026E87
:10003800C70E016E6EEC06F01BEC07F080928892FA
:100048007C9684967C988498000E0101D16F010EED
:10005800C96FAA0ECD6F0F0ECE6FA60ECF6F0F0E03
:10006800D06F000ECC6FC70ECB6F000EC86F010E9D
:10007800D26F000ED56FC70ED46F250ED66F0F0E38
:10008800D76F210ED86F0F0ED96FC7EC07F0C80EC7
:10009800146E010E156ED10E166E010E176E010E3E
:1000A800186E5AEC05F0640E016E010E026E010E18
:1000B800036E95EC07F0000E016E010E026EDAC1B8
:1000C80003F0DBC104F04AEC07F001C0DAF102C02A
:1000D800DBF1C80E196E010E1A6ED10E1B6E010EE1
:1000E8001C6E55EC03F0640E016E010E026E020EDA
:1000F800036E95EC07F0000E016E010E026EDAC178
:1001080003F0DBC104F04AEC07F001C0DAF102C0E9
:10011800DBF1C80E196E010E1A6ED10E1B6E010EA0
:100128001C6E33EC02F0640E016E010E026E030EBB
:10013800036E95EC07F0000E016E010E026EDAC137
:1001480003F0DBC104F04AEC07F001C0DAF102C0A9
:10015800DBF1C80E196E010E1A6ED10E1B6E010E60
:100168001C6E5FEC04F0640E016E010E026E040E4C
:10017800036E95EC07F0000E016E010E026EDAC1F7
:1001880003F0DBC104F04AEC07F001C0DAF102C069
:10019800DBF1C80E146E010E156ED10E166E010E2F
:1001A800176EE4EC04F0C80E196E010E1A6ED10E2B
:1001B8001B6E010E1C6E55EC03F0640E016E010EF1
:1001C800026E020E036E95EC07F0000E016E010E32
:1001D800026EDAC103F0DBC104F04AEC07F001C09B
:1001E800DAF102C0DBF1C80E146E010E156ED10EE5
:1001F800166E010E176EE4EC04F0C80E196E010EAF
:100208001A6ED10E1B6E010E1C6E33EC02F0640EDA
:10021800016E010E026E030E036E95EC07F0000EE0
:10022800016E010E026EDAC103F0DBC104F04AEC84
:1002380007F001C0DAF102C0DBF1C80E196E010E39
:100248001A6ED10E1B6E010E1C6EDAEC03F0640EF2
:10025800016E010E026E050E036E95EC07F0000E9E
:10026800016E010E026EDAC103F0DBC104F04AEC44
:1002780007F001C0DAF102C0DBF1C80E196E010EF9
:100288001A6ED10E1B6E010E1C6EC4EC02F0640EC9
:10029800016E010E026E060E036E95EC07F0000E5D
:1002A800016E010E026EDAC103F0DBC104F04AEC04
:1002B80007F001C0DAF102C0DBF1640E346E010E02
:1002C800356E21EEC8F000EE36F0080EDBCFEBFFFE
:1002D800E806FCE221EED1F000EE3FF0080EDBCF9D
:1002E800EBFFE806FCE2F0EC06F049EF00F014EF53
:1002F80000F020EE02F00E50D9260F50DA22DF501F
:10030800D8B489EF01F08BEF01F0BFEF01F00EC018
:10031800D9FF0FC0DAFFDF50106E1050016E026A6D
:1003280020EE03F00E50D9260F50DA22DECF03F06C
:10033800DDCF04F072EC07F001C007F002C008F04E
:10034800000E0A6E640E096EB6EC06F020EE03F09D
:100358000E50D9260F50DA22DF50116E0750115C6B
:10036800126E20EE03F00E50D9260F50DA22DF501D
:10037800136EE2EF01F0000E126E0EC0D9FF0FC02F
:10038800DAFFDF50106E1050016E026A20EE03F0A3
:100398000E50D9260F50DA22DECF03F0DDCF04F05D
:1003A80072EC07F001C007F002C008F0000E0A6EF8
:1003B800640E096EB6EC06F00750136E20EE01F0DD
:1003C8000E50D9260F50DA22DF50D8B4EEEF01F0E4
:1003D800F0EF01F012EF02F020EE05F00E50D926F2
:1003E8000F50DA22DECF10F0DDCF11F010C0D9FFA8
:1003F80011C0DAFF12C0DFFF20EE07F00E50D92639
:100408000F50DA22DECF10F0DDCF11F010C0D9FF87
:1004180011C0DAFF13C0DFFF32EF02F020EE05F063
:100428000E50D9260F50DA22DECF10F0DDCF11F0B2
:1004380010C0D9FF11C0DAFF13C0DFFF20EE07F0AC
:100448000E50D9260F50DA22DECF10F0DDCF11F092
:1004580010C0D9FF11C0DAFF12C0DFFF120019C0A7
:1004680014F01AC015F01BC016F01CC017F025ECCC
:1004780006F020EE02F01950D9261A50DA22010EA1
:10048800DF6E20EE02F01B50D9261C50DA22010E36
:10049800DF6E20EE01F01950D9261A50DA22000E2C
:1004A800DF6E20EE01F01B50D9261C50DA22010E17
:1004B800DF6E000E206E320E1F6E19C0D9FF1AC0F3
:1004C800DAFF140EDF6E1BC0D9FF1CC0DAFF140E52
:1004D800DF6E91EF02F0090E1E6E1E0E1D6EE40E09
:1004E800E82EFED71D2EFCD71E2EFAD700D019C035
:1004F800D9FF1AC0DAFFDF2A1BC0D9FF1CC0DAFFF8
:10050800DF2A19C00EF01AC00FF07DEC01F01BC0F5
:100518000EF01CC00FF07DEC01F019C0D9FF1AC015
:10052800DAFFDF501D6E1E6A1F501D1807E12050AC
:100538001E18D8A4A2EF02F0A4EF02F06FEF02F0A9
:100548001BC0D9FF1CC0DAFFDF501D6E1E6A1F508A
:100558001D1807E120501E18D8A4B5EF02F0B7EF18
:1005680002F06FEF02F019C00EF01AC00FF07DEC28
:1005780001F01BC00EF01CC00FF07DEC01F0120062
:1005880019C014F01AC015F01BC016F01CC017F0E3
:1005980025EC06F020EE02F01950D9261A50DA227E
:1005A800010EDF6E20EE02F01B50D9261C50DA2215
:1005B800010EDF6E20EE01F01950D9261A50DA220A
:1005C800000EDF6E20EE01F01B50D9261C50DA22F7
:1005D800010EDF6E000E206E320E1F6E19C0D9FF9D
:1005E8001AC0DAFF140EDF6E1BC0D9FF1CC0DAFF79
:1005F800140EDF6E22EF03F0090E1E6E1E0E1D6E26
:10060800E40EE82EFED71D2EFCD71E2EFAD700D0FA
:1006180019C0D9FF1AC0DAFFDF2A1BC0D9FF1CC0D6
:10062800DAFFDF2A19C00EF01AC00FF07DEC01F0D6
:100638001BC00EF01CC00FF07DEC01F019C0D9FFF3
:100648001AC0DAFFDF501D6E1E6A1F501D1807E121
:1006580020501E18D8A433EF03F035EF03F000EF55
:1006680003F01BC0D9FF1CC0DAFFDF501D6E1E6AE5
:100678001F501D1807E120501E18D8A446EF03F09C
:1006880048EF03F000EF03F019C00EF01AC00FF0A6
:100698007DEC01F01BC00EF01CC00FF07DEC01F0EA
:1006A800120019C014F01AC015F01BC016F01CC0B7
:1006B80017F025EC06F020EE02F01950D9261A5052
:1006C800DA22010EDF6E20EE02F01B50D9261C50F4
:1006D800DA22010EDF6E20EE01F01950D9261A50E9
:1006E800DA22010EDF6E20EE01F01B50D9261C50D5
:1006F800DA22000EDF6E000E206E320E1F6E19C059
:10070800D9FF1AC0DAFF140EDF6E1BC0D9FF1CC058
:10071800DAFF140EDF6EB3EF03F0090E1E6E1E0E25
:100728001D6EE40EE82EFED71D2EFCD71E2EFAD71E
:1007380000D019C0D9FF1AC0DAFFDF2A1BC0D9FFC1
:100748001CC0DAFFDF2A19C00EF01AC00FF07DECCA
:1007580001F01BC00EF01CC00FF07DEC01F019C0B9
:10076800D9FF1AC0DAFFDF501D6E1E6A1F501D1810
:1007780007E120501E18D8A4C4EF03F0C6EF03F019
:1007880091EF03F01BC0D9FF1CC0DAFFDF501D6ECC
:100798001E6A1F501D1807E120501E18D8A4D7EF55
:1007A80003F0D9EF03F091EF03F0120019C014F031
:1007B8001AC015F01BC016F01CC017F025EC06F087
:1007C80020EE02F01950D9261A50DA22010EDF6EF7
:1007D80020EE02F01B50D9261C50DA22010EDF6EE3
:1007E80020EE01F01950D9261A50DA22010EDF6ED8
:1007F80020EE01F01B50D9261C50DA22000EDF6EC5
:10080800000E206E320E1F6E19C0D9FF1AC0DAFF13
:10081800140EDF6E1BC0D9FF1CC0DAFF140EDF6E8A
:1008280038EF04F0090E1E6E1E0E1D6EE40EE82E43
:10083800FED71D2EFCD71E2EFAD700D019C0D9FF1F
:100848001AC0DAFFDF2A1BC0D9FF1CC0DAFFDF2A73
:1008580019C00EF01AC00FF07DEC01F01BC00EF0AD
:100868001CC00FF07DEC01F019C0D9FF1AC0DAFFE7
:10087800DF501D6E1E6A1F501D1807E120501E18FC
:10088800D8A449EF04F04BEF04F016EF04F01BC0B6
:10089800D9FF1CC0DAFFDF501D6E1E6A1F501D18DD
:1008A80007E120501E18D8A45CEF04F05EEF04F0B6
:1008B80016EF04F0120019C014F01AC015F01BC08E
:1008C80016F01CC017F025EC06F020EE02F01950C7
:1008D800D9261A50DA22010EDF6E20EE02F01B50E4
:1008E800D9261C50DA22010EDF6E20EE01F01950D5
:1008F800D9261A50DA22010EDF6E20EE01F01B50C5
:10090800D9261C50DA22000EDF6E000E206E320E41
:100918001F6E19C0D9FF1AC0DAFF140EDF6E1BC094
:10092800D9FF1CC0DAFF140EDF6EBDEF04F0090E0C
:100938001E6E1E0E1D6EE40EE82EFED71D2EFCD771
:100948001E2EFAD700D019C0D9FF1AC0DAFFDF2A45
:100958001BC0D9FF1CC0DAFFDF2A19C00EF01AC06D
:100968000FF07DEC01F01BC00EF01CC00FF07DEC09
:1009780001F019C0D9FF1AC0DAFFDF501D6E1E6AD8
:100988001F501D1807E120501E18D8A4CEEF04F000
:10099800D0EF04F09BEF04F01BC0D9FF1CC0DAFFB6
:1009A800DF501D6E1E6A1F501D1807E120501E18CB
:1009B800D8A4E1EF04F0E3EF04F09BEF04F0120099
:1009C80020EE02F01450D9261550DA22010EDF6EFF
:1009D80020EE02F01650D9261750DA22010EDF6EEB
:1009E80020EE01F01450D9261550DA22000EDF6EE1
:1009F80020EE01F01650D9261750DA22000EDF6ECD
:100A0800000E1B6E320E1A6E33EF05F0D00E186E04
:100A1800CA0EE82EFED7182EFCD714C0D9FF15C071
:100A2800DAFFDF2A16C0D9FF17C0DAFFDF2A14C0A1
:100A38000EF015C00FF07DEC01F016C00EF017C0D7
:100A48000FF07DEC01F014C00EF015C00FF07DEC36
:100A580001F016C00EF017C00FF07DEC01F014C0C5
:100A6800D9FF15C0DAFFDF50186E196A1A50181826
:100A780007E11B501918D8A444EF05F046EF05F01C
:100A88000AEF05F016C0D9FF17C0DAFFDF50186E5D
:100A9800196A1A50181807E11B501918D8A457EFEB
:100AA80005F059EF05F00AEF05F0120020EE02F00C
:100AB8001450D9261550DA22010EDF6E20EE02F00E
:100AC8001650D9261750DA22010EDF6E20EE01F0FB
:100AD8001450D9261550DA2218C0DFFF20EE01F095
:100AE8001650D9261750DA2218C0DFFF000E1C6EE8
:100AF800320E1B6E9DEF05F0D00E196ECA0EE82E51
:100B0800FED7192EFCD714C0D9FF15C0DAFFDF2A8B
:100B180016C0D9FF17C0DAFFDF2A14C00EF015C0BF
:100B28000FF07DEC01F016C00EF017C00FF07DEC51
:100B380001F014C0D9FF15C0DAFFDF50196E1A6A28
:100B48001B50191807E11C501A18D8A4AEEF05F06D
:100B5800B0EF05F080EF05F016C0D9FF17C0DAFF37
:100B6800DF50196E1A6A1B50191807E11C501A1821
:100B7800D8A4C1EF05F0C3EF05F080EF05F012002F
:100B8800336E020E3318D8A4CCEF05F0CEEF05F083
:100B9800D8EF05F0210E196E000E1A6E2A0E1B6E84
:100BA800000E1C6E33EC02F0030E3318D8A4DFEFEE
:100BB80005F0E1EF05F0EBEF05F0210E196E000EE0
:100BC8001A6E2A0E1B6E000E1C6E55EC03F0040EF6
:100BD8003318D8A4F2EF05F0F4EF05F0FEEF05F0B6
:100BE800210E196E000E1A6E2A0E1B6E000E1C6E58
:100BF8005FEC04F0050E3318D8A405EF06F007EFF4
:100C080006F011EF06F0210E196E000E1A6E2A0E6C
:100C18001B6E000E1C6EC4EC02F0060E3318D8A42E
:100C280018EF06F01AEF06F024EF06F0210E196E01
:100C3800000E1A6E2A0E1B6E000E1C6EDAEC03F004
:100C4800120020EE02F01450D9261550DA22010EB7
:100C5800DF6E20EE02F01650D9261750DA22010E68
:100C6800DF6E55EF06F014C0D9FF15C0DAFFDF06B6
:100C780016C0D9FF17C0DAFFDF06150E186EC60EAC
:100C8800E82EFED7182EFCD700D014C00EF015C0E1
:100C98000FF07DEC01F016C00EF017C00FF07DECE0
:100CA80001F014C0D9FF15C0DAFFDF50D8B45FEFE8
:100CB80006F061EF06F06DEF06F016C0D9FF17C019
:100CC800DAFFDF50D8A46BEF06F06DEF06F037EFD0
:100CD80006F012007D947D987B9E7F9C8594859874
:100CE800839E879C050E0E01746F060E766F070EA5
:100CF800696F080E886FBD508F0B1009BD6EE00E2E
:100D0800BE16BF50F00B0109BF6EC70EBC6EBD8E7C
:100D1800000EAA6E000EA66E000E0F01256F000EC3
:100D2800216FFC0EAD16F30EAD16CF0EAD163F0EAD
:100D3800AD16AB88AB50F00B0C09AB6EAB8EA78829
:100D4800A750F00B0C09A76EA78E26892651F00B29
:100D58000C09266F268F22892251F00B0C09226F6D
:100D6800228F1200000E0C6E000E0B6E09500A1036
:100D7800D8B4C1EF06F0C3EF06F0EBEF06F0010EB2
:100D88000D6ECBEF06F0D89009360A360D2A0AAE5A
:100D9800D0EF06F0D2EF06F0C7EF06F0D8900B368A
:100DA8000C360950075C0A500858D8A0DEEF06F048
:100DB800E0EF06F0E5EF06F00950075E0A50085A22
:100DC8000B80D8900A3209320D2ED2EF06F00BC0F4
:100DD80007F00CC008F0120013EF07F020EE36F011
:100DE80000EE21F0080EDBCFEBFFE806FCE220EE78
:100DF8003FF000EE2AF0080EDBCFEBFFE806FCE23E
:100E08004EC048F0496A48BE490648503424D96E55
:100E180049503520DA6EDF50C4EC05F04E064EBE60
:100E28001AEF07F018EF07F0F2EF06F0120035ECB2
:100E380007F0010E036E000E85EC07F03F0E056EFD
:100E4800550EE82EFED7052EFCD700F0030E036ED4
:100E5800000E85EC07F0D50E036E010E85EC07F049
:100E680012000E01D951F00B0809D96FD98B9F0ECA
:100E7800D66F848A848CA79BA79D1D0E1D6F1E0E9E
:100E88001C6F1C0E6F6F1B0E706F1200D59E4FC02B
:100E980005F0066A05BE060605500124D96E0650FF
:100EA8000220DA6E03C0DFFF4F2A000E026E000E2A
:100EB800016E12000E01D8B564EF07F066EF07F077
:100EC8005EEF07F0DACE01F01F0E0116D8A46FEF1F
:100ED80007F071EF07F05EEF07F012000150030210
:100EE800F3CF05F0F4CF06F001500402F3500626C4
:100EF80002500302F350062605C001F006C002F0B6
:100F08001200046ED1EC07F0520EBBEC07F004504F
:100F18008009BBEC07F00350BBEC07F0CCEC07F002
:100F280012004EC004F0056A04BE050604500124F0
:100F3800D96E05500220DA6E03C0DFFF4E2A120078
:100F48000101DB6BDA6B4F6A4E6A4D6A4C6A4B6A79
:100F58004A6A50905092000116EF00F0D6501F0BCD
:100F68004009D66ED688F00ED616D5881200026EC5
:100F78005EEC07F002C0D5FE12000E01298BF28C40
:100F8800F29AF28E1200050ED46ED368D58E120036
:100F98005EEC07F00E01DA8512005EEC07F00E0138
:040FA800DA811200D8
:020000040020DA
:10000000FF0FFF0FFF0FFF0FFF0FFF0FFF0FFF0F80
:020000040030CA
:0C000000AAFFFFFF9FFFFFFFFFFFFFFFB5
:00000001FF
