:0400000012EF00F00B
:100008005B820E0133AB0BEF00F00DEF00F00FEF4A
:1000180000F0574A582A339B5B921100F5EF0AF01B
:10002800000E0F6E640E0E6E20EE06F01350D926E9
:100038001450DA22DECF0CF0DDCF0DF015EC09F00C
:100048000CC017F00DC018F013C0D9FF14C0DAFFA8
:10005800DECF0CF0DDCF0DF017C00EF018C00FF09A
:1000680015EC09F00CC01BF00DC01CF0000E0F6E53
:10007800640E0E6E20EE06F01350D9261450DA22C4
:10008800DECF0CF0DDCF0DF015EC09F00CC017F049
:100098000DC018F020EE02F01350D9261450DA22C1
:1000A800DECF0CF0DDCF0DF017C00EF018C00FF04A
:1000B80015EC09F00CC01DF00DC01EF0000E0F6EFF
:1000C800640E0E6E20EE06F01350D9261450DA2274
:1000D800DECF0CF0DDCF0DF015EC09F00CC017F0F9
:1000E8000DC018F020EE04F01350D9261450DA226F
:1000F800DECF0CF0DDCF0DF017C00EF018C00FF0FA
:1001080015EC09F00CC019F00DC01AF01C5009E1EB
:10011800970E1B5CD8A093EF00F095EF00F0E5EF89
:1001280000F01E5009E1290E1D5CD8A09EEF00F0DA
:10013800A0EF00F0E5EF00F01E5007E1500E1D5C47
:10014800D8B0A9EF00F0ABEF00F0E5EF00F01950E0
:100158001A10D8B4B2EF00F0B4EF00F0E5EF00F0F9
:100168001A5007E1280E195CD8B0BDEF00F0BFEFB8
:1001780000F0E5EF00F020EE06F01350D9261450F9
:10018800DA22010EDB5009E1C90EDE5CD8A0CFEF00
:1001980000F0D1EF00F0E5EF00F020EE06F013508C
:1001A800D9261450DA22900EDE5C010EDE58D8B043
:1001B800E0EF00F0E2EF00F0E5EF00F0020EACEF48
:1001C80002F01C5009E13D0E1B5CD8A0EEEF00F0D8
:1001D800F0EF00F030EF01F01C5007E1640E1B5CFB
:1001E800D8B0F9EF00F0FBEF00F030EF01F01E504F
:1001F80009E13D0E1D5CD8A004EF01F006EF01F007
:1002080030EF01F01E5007E1640E1D5CD8B00FEF0F
:1002180001F011EF01F030EF01F01A5009E16F0E13
:10022800195CD8A01AEF01F01CEF01F030EF01F0D3
:1002380020EE06F01350D9261450DA22260EDE5C82
:10024800020EDE58D8B02BEF01F02DEF01F030EFA1
:1002580001F0030EACEF02F01C5009E12E0E1B5CFE
:10026800D8A039EF01F03BEF01F099EF01F01C50F5
:1002780007E1370E1B5CD8B044EF01F046EF01F000
:1002880099EF01F01E5009E1A10E1D5CD8A04FEFB7
:1002980001F051EF01F099EF01F01E5007E1B40EA3
:1002A8001D5CD8B05AEF01F05CEF01F099EF01F056
:1002B8001A5009E15B0E195CD8A065EF01F067EFF1
:1002C80001F099EF01F01A5007E16E0E195CD8B0F1
:1002D80070EF01F072EF01F099EF01F020EE06F0F7
:1002E8001350D9261450DA22010EDB5009E1650EAD
:1002F800DE5CD8A082EF01F084EF01F099EF01F005
:1003080020EE06F01350D9261450DA22010EDB50E5
:1003180007E1C80EDE5CD8B094EF01F096EF01F06B
:1003280099EF01F0040EACEF02F01C5009E16A0EDF
:100338001B5CD8A0A2EF01F0A4EF01F0DFEF01F001
:100348001E5007E1500E1D5CD8B0ADEF01F0AFEFC5
:1003580001F0DFEF01F01A5009E1600E195CD8A036
:10036800B8EF01F0BAEF01F0DFEF01F020EE06F090
:100378001350D9261450DA22590EDE5C020EDE58CC
:10038800D8A0C9EF01F0CBEF01F0DFEF01F020EECC
:1003980006F01350D9261450DA22200EDE5C030E24
:1003A800DE58D8B0DAEF01F0DCEF01F0DFEF01F052
:1003B800050EACEF02F01C5009E1650E1B5CD8A0DD
:1003C800E8EF01F0EAEF01F030EF02F01C5007E12E
:1003D800780E1B5CD8B0F3EF01F0F5EF01F030EFC9
:1003E80002F01E5009E1510E1D5CD8A0FEEF01F08D
:1003F80000EF02F030EF02F01A5007E1640E195CCA
:10040800D8B009EF02F00BEF02F030EF02F020EE67
:1004180006F01350D9261450DA22270EDE5C020E9D
:10042800DE58D8A01AEF02F01CEF02F030EF02F00D
:1004380020EE06F01350D9261450DA22EE0EDE5CB8
:10044800020EDE58D8B02BEF02F02DEF02F030EF9D
:1004580002F0060EACEF02F01C5009E18D0E1B5C99
:10046800D8A039EF02F03BEF02F065EF02F01E5022
:1004780007E1550E1D5CD8B044EF02F046EF02F0DC
:1004880065EF02F01A5007E1550E195CD8B04FEF2E
:1004980002F051EF02F065EF02F020EE06F0135083
:1004A800D9261450DA22580EDE5C020EDE58D8B077
:1004B80060EF02F062EF02F065EF02F0070EACEFBA
:1004C80002F01C5007E15A0E1B5CD8B06EEF02F028
:1004D80070EF02F0ABEF02F01E5009E16F0E1D5CE9
:1004E800D8A079EF02F07BEF02F0ABEF02F01A50E0
:1004F80009E1790E195CD8A084EF02F086EF02F0CA
:10050800ABEF02F020EE06F01350D9261450DA2291
:10051800910EDE5C010EDE58D8A095EF02F097EF41
:1005280002F0ABEF02F020EE06F01350D92614507B
:10053800DA22BC0EDE5C020EDE58D8B0A6EF02F05E
:10054800A8EF02F0ABEF02F0080EACEF02F0090ED4
:10055800120000EC0BF00FEC0BF0000E026EC70E51
:10056800016ECDEC08F049EC0AF049EC0AF069ECB0
:100578000AF0000E0101DB6F000EDA6F000EDD6F6E
:10058800000EDC6F000EDF6F000EDE6F000EE16FF5
:10059800000EE06F000ED36F000ED26F000ED56F05
:1005A800000ED46F000ED76F000ED66F000ED96FF5
:1005B800000ED86F7E8E7F82798884967C9686849A
:1005C8000E01B4957C9E849EE8EC0AF0C9EC0AF012
:1005D800025007E1640E015CD8B0F5EF02F0F7EFC6
:1005E80002F0F8EF02F07C8E809288927C968496D6
:1005F8007C988498000E0101EB6F010EE36FAA0E40
:10060800E76F0F0EE86FA60EE96F0F0EEA6F000E88
:10061800E66FC70EE56F000EE26F010EEC6F000E7D
:10062800EF6FC70EEE6F250EF06F0F0EF16F210EF4
:10063800F26F0F0EF36F86840E01B4957C9E849E34
:100648008686B497809688968EB62DEF03F02FEFA6
:1006580003F028EF03F0808688EC09F005C0CAF1A2
:1006680006C0CBF100EC0AF005C0CCF106C0CDF114
:10067800B0EC09F005C0CEF106C0CFF1D8EC09F016
:1006880005C0D0F106C0D1F180968EB44EEF03F0CC
:1006980050EF03F049EF03F07C8E88EC09F005C0B9
:1006A800D2F106C0D3F100EC0AF005C0D4F106C0BF
:1006B800D5F1B0EC09F005C0D6F106C0D7F1D8ECF9
:1006C80009F005C0D8F106C0D9F17C9EE20E196E7A
:1006D800010E1A6EEB0E1B6E010E1C6E010E1D6EC6
:1006E8000EEC08F0030E0F6EE80E0E6ED8C10CF07B
:1006F800D9C10DF015EC09F00CC0C8F10DC0C9F155
:10070800D8EC09F00101D051055C0C6ED1510658A6
:100718000D6EC8C10EF0C9C10FF015EC09F00CC080
:10072800E0F10DC0E1F16AEF03F012EF00F020EE06
:1007380002F01350D9261450DA22DF50D8B4A7EFAC
:1007480003F0A9EF03F0DDEF03F013C0D9FF14C0E5
:10075800DAFFDF50156E1550016E026A20EE03F0C5
:100768001350D9261450DA22DECF03F0DDCF04F07F
:10077800A6EC0AF001C00CF002C00DF0000E0F6EDE
:10078800640E0E6E15EC09F020EE03F01350D92616
:100798001450DA22DF50166E0C50165C176E20EEDD
:1007A80003F01350D9261450DA22DF50186E00EFE8
:1007B80004F0000E176E13C0D9FF14C0DAFFDF5023
:1007C800156E1550016E026A20EE03F01350D926FB
:1007D8001450DA22DECF03F0DDCF04F0A6EC0AF0E5
:1007E80001C00CF002C00DF0000E0F6E640E0E6E0C
:1007F80015EC09F00C50186E20EE01F01350D926B4
:100808001450DA22DF50D8B40CEF04F00EEF04F0E5
:1008180030EF04F020EE05F01350D9261450DA22F8
:10082800DECF15F0DDCF16F015C0D9FF16C0DAFF00
:1008380017C0DFFF20EE07F01350D9261450DA2234
:10084800DECF15F0DDCF16F015C0D9FF16C0DAFFE0
:1008580018C0DFFF50EF04F020EE05F01350D92642
:100868001450DA22DECF15F0DDCF16F015C0D9FF0F
:1008780016C0DAFF18C0DFFF20EE07F01350D926A4
:100888001450DA22DECF15F0DDCF16F015C0D9FFEF
:1008980016C0DAFF17C0DFFF1200DFEF04F05906B9
:1008A80059284E6E4F6A4EBE4F064E503824D96EA8
:1008B8004F503920DA6EDE04D8A465EF04F067EFF4
:1008C80004F09EEF04F03A0E196E000E1A6E430EF5
:1008D8001B6E000E1C6E000E1D6E0EEC08F05A0604
:1008E8005A284E6E4F6A4EBE4F064E504C24D96E53
:1008F8004F504D20DA6EDF50506E516A5050575CA1
:100908005850800A526E5150800A5258D8A08FEF22
:1009180004F091EF04F073EF04F0D59E3A0E196ECF
:10092800000E1A6E430E1B6E000E1C6E4FEC09F083
:10093800DFEF04F059C04EF04F6A4EBE4F064E50DE
:100948003824D96E4F503920DA6EDE04D8B4AFEFB0
:1009580004F0B1EF04F0DFEF04F020EE3AF000EE1F
:1009680025F0080EDBCFEBFFE806FCE220EE43F0B3
:1009780000EE2EF0080EDBCFEBFFE806FCE259C0D4
:100988004EF04F6A4EBE4F064E503824D96E4F5027
:100998003920DA6EDF505EEC05F03A0E1E6E000E5E
:1009A8001F6E430E206E000E216E010E226EA4EC07
:1009B80007F051EF04F059BEE6EF04F0E4EF04F05D
:1009C80053EF04F012001EC019F01FC01AF020C027
:1009D8001BF021C01CF04FEC09F020EE01F01E5076
:1009E800D9261F50DA22000EDF6E20EE01F02050CB
:1009F800D9262150DA22010EDF6E1EC0D9FF1FC092
:100A0800DAFF140EDF6E20C0D9FF21C0DAFF140E02
:100A1800DF6E2DEF05F0680E226EE40EE82EFED78D
:100A2800222EFCD700D01EC0D9FF1FC0DAFFDF2A54
:100A380020C0D9FF21C0DAFFDF2A1EC013F01FC073
:100A480014F09BEC03F020C013F021C014F09BECD1
:100A580003F01EC0D9FF1FC0DAFF320EDE18D8A47B
:100A680038EF05F03AEF05F00FEF05F020C0D9FF99
:100A780021C0DAFF320EDE18D8A445EF05F047EFA3
:100A880005F00FEF05F00D0E236EFD0E226EA20E7F
:100A9800E82EFED7222EFCD7232EFAD700D01EC070
:100AA80019F01FC01AF020C01BF021C01CF04FEC39
:100AB80009F01200376E020E3718D8A466EF05F059
:100AC80068EF05F072EF05F0250E1E6E000E1F6E22
:100AD8002E0E206E000E216EE7EC04F0030E371880
:100AE800D8A479EF05F07BEF05F085EF05F0250E2A
:100AF8001E6E000E1F6E2E0E206E000E216ED4ECA0
:100B080005F0040E3718D8A48CEF05F08EEF05F029
:100B180098EF05F0250E1E6E000E1F6E2E0E206E2D
:100B2800000E216E31EC07F0050E3718D8A49FEFA0
:100B380005F0A1EF05F0ABEF05F0250E1E6E000ED7
:100B48001F6E2E0E206E000E216EBDEC06F0060EF6
:100B58003718D8A4B2EF05F0B4EF05F0BEEF05F0F2
:100B6800250E1E6E000E1F6E2E0E206E000E216EBC
:100B780049EC06F0070E3718D8A4C5EF05F0C7EF03
:100B880005F0D3EF05F0250E1E6E000E1F6E2E0E1B
:100B9800206E000E216E000E226EA4EC07F01200EB
:100BA8001EC019F01FC01AF020C01BF021C01CF095
:100BB8004FEC09F020EE01F01E50D9261F50DA2222
:100BC800010EDF6E20EE01F02050D9262150DA22E6
:100BD800000EDF6E1EC0D9FF1FC0DAFF140EDF6ED5
:100BE80020C0D9FF21C0DAFF140EDF6E1AEF06F01D
:100BF800680E226EE40EE82EFED7222EFCD700D017
:100C08001EC0D9FF1FC0DAFFDF2A20C0D9FF21C0CC
:100C1800DAFFDF2A1EC013F01FC014F09BEC03F0AC
:100C280020C013F021C014F09BEC03F01EC0D9FFC4
:100C38001FC0DAFF330EDF6024EF06F026EF06F060
:100C480032EF06F020C0D9FF21C0DAFF320EDF6490
:100C580030EF06F032EF06F0FCEF05F00D0E236ED4
:100C6800FD0E226EA20EE82EFED7222EFCD7232ED2
:100C7800FAD700D01EC019F01FC01AF020C01BF010
:100C880021C01CF04FEC09F012001EC019F01FC063
:100C98001AF020C01BF021C01CF04FEC09F020EE28
:100CA80001F01E50D9261F50DA22010EDF6E20EE09
:100CB80001F02050D9262150DA22000EDF6E1EC026
:100CC800D9FF1FC0DAFF140EDF6E20C0D9FF21C084
:100CD800DAFF140EDF6E8EEF06F0D00E226ECA0E0B
:100CE800E82EFED7222EFCD71EC0D9FF1FC0DAFF80
:100CF800DF2A20C0D9FF21C0DAFFDF2A1EC013F087
:100D08001FC014F09BEC03F020C013F021C014F0B6
:100D18009BEC03F01EC0D9FF1FC0DAFF320EDF6460
:100D280098EF06F09AEF06F071EF06F020C0D9FFB1
:100D380021C0DAFF320EDF64A4EF06F0A6EF06F05A
:100D480071EF06F0290E236E960E226E7F0EE82EA6
:100D5800FED7222EFCD7232EFAD700F01EC019F09A
:100D68001FC01AF020C01BF021C01CF04FEC09F086
:100D780012001EC019F01FC01AF020C01BF021C0BD
:100D88001CF04FEC09F020EE01F01E50D9261F5040
:100D9800DA22000EDF6E20EE01F02050D926215015
:100DA800DA22010EDF6E1EC0D9FF1FC0DAFF140E53
:100DB800DF6E20C0D9FF21C0DAFF140EDF6E02EF0C
:100DC80007F0D00E226ECA0EE82EFED7222EFCD7D0
:100DD8001EC0D9FF1FC0DAFFDF2A20C0D9FF21C0FB
:100DE800DAFFDF2A1EC013F01FC014F09BEC03F0DB
:100DF80020C013F021C014F09BEC03F01EC0D9FFF3
:100E08001FC0DAFF320EDF640CEF07F00EEF07F0B9
:100E1800E5EF06F020C0D9FF21C0DAFF320EDF640B
:100E280018EF07F01AEF07F0E5EF06F0290E236E2A
:100E3800960E226E7F0EE82EFED7222EFCD7232E8A
:100E4800FAD700F01EC019F01FC01AF020C01BF01E
:100E580021C01CF04FEC09F012001EC019F01FC091
:100E68001AF020C01BF021C01CF04FEC09F020EE56
:100E780001F01E50D9261F50DA22010EDF6E20EE37
:100E880001F02050D9262150DA22000EDF6E1EC054
:100E9800D9FF1FC0DAFF140EDF6E20C0D9FF21C0B2
:100EA800DAFF140EDF6E76EF07F0D00E226ECA0E50
:100EB800E82EFED7222EFCD71EC0D9FF1FC0DAFFAE
:100EC800DF2A20C0D9FF21C0DAFFDF2A1EC013F0B5
:100ED8001FC014F09BEC03F020C013F021C014F0E5
:100EE8009BEC03F01EC0D9FF1FC0DAFF320EDF648F
:100EF80080EF07F082EF07F059EF07F020C0D9FF25
:100F080021C0DAFF320EDF648CEF07F08EEF07F0B6
:100F180059EF07F0190E236E5A0E226EB20EE82E04
:100F2800FED7222EFCD7232EFAD71EC019F01FC0D9
:100F38001AF020C01BF021C01CF04FEC09F0120081
:100F480020EE01F01E50D9261F50DA2222C0DFFF02
:100F580020EE01F02050D9262150DA2222C0DFFFEE
:100F6800DFEF07F0D00E236ECA0EE82EFED7232E31
:100F7800FCD71EC0D9FF1FC0DAFFDF2A20C0D9FF67
:100F880021C0DAFFDF2A1EC013F01FC014F09BEC4B
:100F980003F020C013F021C014F09BEC03F01EC036
:100FA80013F01FC014F09BEC03F020C013F021C015
:100FB80014F09BEC03F01EC0D9FF1FC0DAFF320EFD
:100FC800DF64E9EF07F0EBEF07F0B6EF07F020C0BA
:100FD800D9FF21C0DAFF320EDF64F5EF07F0F7EF33
:100FE80007F0B6EF07F0110E246E3C0E236ECB0E01
:100FF800E82EFED7232EFCD7242EFAD700F01EC0E9
:1010080019F01FC01AF020C01BF021C01CF04FECD3
:1010180009F0120020EE02F01950D9261A50DA22EF
:10102800010EDF6E20EE02F01B50D9261C50DA228A
:10103800010EDF6E20EE01F01950D9261A50DA227F
:101048001DC0DFFF20EE01F01B50D9261C50DA220C
:101058001DC0DFFF4DEF08F0D00E1E6ECA0EE82E41
:10106800FED71E2EFCD719C0D9FF1AC0DAFFDF2A17
:101078001BC0D9FF1CC0DAFFDF2A19C013F01AC041
:1010880014F09BEC03F01BC013F01CC014F09BEC95
:1010980003F019C0D9FF1AC0DAFF1F0EDF6057EF3F
:1010A80008F059EF08F065EF08F01BC0D9FF1CC025
:1010B800DAFF1E0EDF6463EF08F065EF08F030EF2B
:1010C80008F01D04D8A46BEF08F06DEF08F06EEF80
:1010D80008F0D550120020EE01F01E50D9261F50FE
:1010E800DA2222C0DFFF20EE01F02050D92621505D
:1010F800DA2222C0DFFFAAEF08F0D00E236ECA0E54
:10110800E82EFED7232EFCD71EC0D9FF1FC0DAFF5A
:10111800DF2A20C0D9FF21C0DAFFDF2A1EC013F062
:101128001FC014F09BEC03F020C013F021C014F092
:101138009BEC03F01EC013F01FC014F09BEC03F0EF
:1011480020C013F021C014F09BEC03F01EC0D9FF9F
:101158001FC0DAFF320EDF64B4EF08F0B6EF08F014
:1011680081EF08F020C0D9FF21C0DAFF320EDF641A
:10117800C0EF08F0C2EF08F081EF08F01EC019F0C8
:101188001FC01AF020C01BF021C01CF04FEC09F062
:1011980012007D947D987B9E7F9C85948598839E84
:1011A800879C050E0E01746F060E766F070E696F29
:1011B800080E886FBD508F0B1009BD6EE00EBE166D
:1011C800BF50F00B0109BF6EC70EBC6EBD8E000E7E
:1011D800AA6E000EA66E000E0F01256F000E216F7D
:1011E800FC0EAD16F30EAD16CF0EAD163F0EAD16B6
:1011F800AB88AB50F00B0C09AB6EAB8EA788A75031
:10120800F00B0C09A76EA78E26892651F00B0C0946
:10121800266F268F22892251F00B0C09226F228F0C
:101228001200000E116E000E106E0E500F10D8B482
:1012380020EF09F022EF09F04AEF09F0010E126ED3
:101248002AEF09F0D8900E360F36122A0FAE2FEF7C
:1012580009F031EF09F026EF09F0D8901036113671
:101268000E500C5C0F500D58D8A03DEF09F03FEF21
:1012780009F044EF09F00E500C5E0F500D5A108023
:10128800D8900F320E32122E31EF09F010C00CF048
:1012980011C00DF012006FEF09F019C0D9FF1AC084
:1012A800DAFFDF061BC0D9FF1CC0DAFFDF06150E08
:1012B8001D6EC60EE82EFED71D2EFCD700D019C015
:1012C80013F01AC014F09BEC03F01BC013F01CC001
:1012D80014F09BEC03F019C0D9FF1AC0DAFFDF50F5
:1012E800D8B479EF09F07BEF09F087EF09F01BC05C
:1012F800D9FF1CC0DAFFDF50D8A485EF09F087EFCB
:1013080009F051EF09F012001FEC0BF0520E09EC36
:101318000BF0B60E09EC0BF015EC0BF0530E09ECC4
:101328000BF0010E28EC0AF0076E07500A6E0B6AE4
:10133800000E28EC0AF0076E0750096E086A0A507A
:1013480008100A6E0B5009100B6E1AEC0BF00AC04D
:1013580005F00BC006F012001FEC0BF0520E09EC62
:101368000BF0B80E09EC0BF015EC0BF0530E09EC72
:101378000BF0010E28EC0AF0076E07500A6E0B6A94
:10138800000E28EC0AF0076E0750096E086A0A502A
:1013980008100A6E0B5009100B6E1AEC0BF00AC0FD
:1013A80005F00BC006F012001FEC0BF0520E09EC12
:1013B8000BF0B40E09EC0BF015EC0BF0530E09EC26
:1013C8000BF0010E28EC0AF0076E07500A6E0B6A44
:1013D800000E28EC0AF0076E0750096E086A0A50DA
:1013E80008100A6E0B5009100B6E1AEC0BF00AC0AD
:1013F80005F00BC006F012001FEC0BF0520E09ECC2
:101408000BF0BA0E09EC0BF015EC0BF0530E09ECCF
:101418000BF0010E28EC0AF0076E07500A6E0B6AF3
:10142800000E28EC0AF0076E0750096E086A0A5089
:1014380008100A6E0B5009100B6E1AEC0BF00AC05C
:1014480005F00BC006F01200036E92EC0AF00E01D4
:10145800DA8792EC0AF0D5CE04F092EC0AF0035049
:10146800D8B439EF0AF03DEF0AF0026A022A3EEFDB
:101478000AF0026A023A02460E01DA510218DF0B3C
:101488000218DA6FDA890450120069EC0AF0010ECA
:10149800036E000EB9EC0AF03F0E056E550EE82EED
:1014A800FED7052EFCD700F0030E036E000EB9EC34
:1014B8000AF0D50E036E010EB9EC0AF0869E8792EB
:1014C80081987E9E7F92798812000E01D951F00B87
:1014D8000809D96FD98B9F0ED66F848A848CA79BF5
:1014E800A79D1D0E1D6F1E0E1C6F1C0E6F6F1B0E11
:1014F800706F1200D59E5AC005F0066A05BE060632
:1015080005500124D96E06500220DA6E03C0DFFFB1
:101518005A2A000E026E000E016E12000E01D8B596
:1015280098EF0AF09AEF0AF092EF0AF0DACE01F09B
:101538001F0E0116D8A4A3EF0AF0A5EF0AF092EF48
:101548000AF0120001500302F3CF05F0F4CF06F0C1
:1015580001500402F350062602500302F3500626F7
:1015680005C001F006C002F01200046E1FEC0BF07B
:10157800520E09EC0BF00450800909EC0BF00350F3
:1015880009EC0BF01AEC0BF01200608060B0CFEFA2
:101598000AF0D1EF0AF0CAEF0AF064CF03F0046A48
:1015A80003C001F004C002F0120059C004F0056A3B
:1015B80004BE050604500124D96E05500220DA6ED7
:1015C80003C0DFFF592A120081880E0192890F019A
:1015D8005899FC0E5817030E5F6F60946088608EF0
:1015E800120000EE53F0080EEE6AE806FDE15B908B
:1015F8005B920001ADEF02F0D6501F0B4009D66E8A
:10160800D688F00ED616D5881200026E92EC0AF033
:1016180002C0D5FE12000E01298BF28CF29AF28ECE
:10162800120092EC0AF00E01DA83120092EC0AF032
:101638000E01DA85120092EC0AF00E01DA8112002E
:020000040020DA
:10000000FF0FFF0FFF0FFF0FFF0FFF0FFF0FFF0F80
:020000040030CA
:0C000000AAFFFFFF9FFFFFFFFFFFFFFFB5
:00000001FF
