:040000001DEF00F000
:1000080057820E0133AB0BEF00F00DEF00F01AEF43
:1000180000F05404D8A413EF00F015EF00F01AEF25
:1000280000F0524A532A050ED46ED368339B579278
:10003800110074EF13F028C0D9FF29C0DAFFDECF12
:100048002AF0DDCF2BF02AC001F02BC002F0036AA2
:10005800046A000E57EC0BF001C00FF002C010F05C
:1000680003C011F004C012F020EE06F02850D92683
:100078002950DA22DECF2CF0DDCF2DF02CC001F094
:100088002DC002F0036A046A000E57EC0BF001C0A1
:1000980013F002C014F003C015F004C016F09DEC74
:1000A80008F00FC02EF010C02FF011C030F012C0B1
:1000B80031F020EE02F02850D9262950DA22DECF7E
:1000C8002AF0DDCF2BF02AC001F02BC002F0036A22
:1000D800046A000E57EC0BF001C00FF002C010F0DC
:1000E80003C011F004C012F020EE06F02850D92603
:1000F8002950DA22DECF2CF0DDCF2DF02CC001F014
:100108002DC002F0036A046A000E57EC0BF001C020
:1001180013F002C014F003C015F004C016F09DECF3
:1001280008F00FC032F010C033F011C034F012C024
:1001380035F020EE04F02850D9262950DA22DECFF7
:100148002AF0DDCF2BF02AC001F02BC002F0036AA1
:10015800046A000E57EC0BF001C00FF002C010F05B
:1001680003C011F004C012F020EE06F02850D92682
:100178002950DA22DECF2CF0DDCF2DF02CC001F093
:100188002DC002F0036A046A000E57EC0BF001C0A0
:1001980013F002C014F003C015F004C016F09DEC73
:1001A80008F00FC036F010C037F011C038F012C098
:1001B80039F0000E056E000E066EC80E076E420E70
:1001C800086E2EC001F02FC002F030C003F031C01D
:1001D80004F088EC06F001C01AF002C01BF003C05E
:1001E8001CF004C01DF086EC0DF01AC03CF01BC0DA
:1001F8003DF0000E056E000E066EC80E076E420E2C
:10020800086E32C001F033C002F034C003F035C0CC
:1002180004F088EC06F001C01AF002C01BF003C01D
:100228001CF004C01DF086EC0DF01AC03EF01BC097
:100238003FF0000E056E000E066EC80E076E420EE9
:10024800086E36C001F037C002F038C003F039C07C
:1002580004F088EC06F001C01AF002C01BF003C0DD
:100268001CF004C01DF086EC0DF01AC03AF01BC05B
:100278003BF03D5009E1970E3C5CD8A046EF01F0F9
:1002880048EF01F084EF01F03F5007E1500E3E5C6B
:10029800D8B051EF01F053EF01F084EF01F03B507B
:1002A80007E1280E3A5CD8B05CEF01F05EEF01F090
:1002B80084EF01F020EE06F02850D9262950DA22E2
:1002C800010EDB5009E1C90EDE5CD8A06EEF01F02B
:1002D80070EF01F084EF01F020EE06F02850D926E7
:1002E8002950DA22900EDE5C010EDE58D8B07FEF7E
:1002F80001F081EF01F084EF01F0020E68EF03F0E6
:100308003D5009E13D0E3C5CD8A08DEF01F08FEF28
:1003180001F0CFEF01F03D5007E1640E3C5CD8B02E
:1003280098EF01F09AEF01F0CFEF01F03F5009E1AB
:100338003D0E3E5CD8A0A3EF01F0A5EF01F0CFEF92
:1003480001F03F5007E1640E3E5CD8B0AEEF01F01B
:10035800B0EF01F0CFEF01F03B5009E16F0E3A5CCE
:10036800D8A0B9EF01F0BBEF01F0CFEF01F020EE1C
:1003780006F02850D9262950DA22260EDE5C020E15
:10038800DE58D8B0CAEF01F0CCEF01F0CFEF01F0A2
:10039800030E68EF03F03D5007E1460E3C5CD8B011
:1003A800D8EF01F0DAEF01F005EF02F03F5009E174
:1003B800650E3E5CD8A0E3EF01F0E5EF01F005EF34
:1003C80002F03B5007E1820E3A5CD8B0EEEF01F044
:1003D800F0EF01F005EF02F020EE06F02850D926E4
:1003E8002950DA22010EDB5007E1B40EDE5CD8B0EA
:1003F80000EF02F002EF02F005EF02F0040E68EFE2
:1004080003F03D5009E1650E3C5CD8A00EEF02F008
:1004180010EF02F045EF02F03F5007E1550E3E5C49
:10042800D8B019EF02F01BEF02F045EF02F03B5095
:1004380009E1560E3A5CD8A024EF02F026EF02F04C
:1004480045EF02F020EE06F02850D9262950DA228E
:100458008B0EDE5C020EDE58D8A035EF02F037EFC7
:1004680002F045EF02F03A503E5C3B503F58D8B09E
:1004780040EF02F042EF02F045EF02F0050E68EFA0
:1004880003F03D5009E1650E3C5CD8A04EEF02F048
:1004980050EF02F085EF02F03D5007E1780E3C5C2A
:1004A800D8B059EF02F05BEF02F085EF02F03F5051
:1004B80009E1510E3E5CD8A064EF02F066EF02F04D
:1004C80085EF02F03B5007E15F0E3A5CD8B06FEF62
:1004D80002F071EF02F085EF02F020EE06F02850EE
:1004E800D9262950DA22A30EDE5C020EDE58D8B0D7
:1004F80080EF02F082EF02F085EF02F0060E68EF5F
:1005080003F03D5009E17E0E3C5CD8A08EEF02F06E
:1005180090EF02F0BAEF02F03F5007E1550E3E5C53
:10052800D8B099EF02F09BEF02F0BAEF02F03B501F
:1005380007E1550E3A5CD8B0A4EF02F0A6EF02F03E
:10054800BAEF02F020EE06F02850D9262950DA2218
:10055800910EDE5C010EDE58D8A0B5EF02F0B7EFC1
:1005680002F0BAEF02F0070E68EF03F03D5007E122
:100578005A0E3C5CD8B0C3EF02F0C5EF02F000EFB2
:1005880003F03F5009E1650E3E5CD8A0CEEF02F0C3
:10059800D0EF02F000EF03F03B5009E16F0E3A5C38
:1005A800D8A0D9EF02F0DBEF02F000EF03F020EE65
:1005B80006F02850D9262950DA22910EDE5C010E69
:1005C800DE58D8A0EAEF02F0ECEF02F000EF03F0FB
:1005D80020EE06F02850D9262950DA22BC0EDE5C1F
:1005E800020EDE58D8B0FBEF02F0FDEF02F000EF8C
:1005F80003F0080E68EF03F03D5009E1530E3C5C30
:10060800D8A009EF03F00BEF03F067EF03F03D50BC
:1006180007E16B0E3C5CD8B014EF03F016EF03F063
:1006280067EF03F03F5009E1530E3E5CD8A01FEF7F
:1006380003F021EF03F067EF03F03F5007E16B0E83
:100648003E5CD8B02AEF03F02CEF03F067EF03F01D
:100658003B5009E1530E3A5CD8A035EF03F037EF71
:1006680003F067EF03F03B5007E16B0E3A5CD8B03C
:1006780040EF03F042EF03F067EF03F020EE06F0DF
:100688002850D9262950DA22BD0EDE5C020EDE582B
:10069800D8A051EF03F053EF03F067EF03F020EE1B
:1006A80006F02850D9262950DA22B00EDE5C040E56
:1006B800DE58D8B062EF03F064EF03F067EF03F0A1
:1006C800090E68EF03F00A0E1200F9EC13F024EC9F
:1006D80014F0000E026EC70E016ED8EC11F054EC47
:1006E80013F08DEC13F0000E00019F6F000E9E6F4B
:1006F800000EA16F000EA06F000EA36F000EA26F78
:10070800000EA56F000EA46F000E8F6F000E8E6F87
:10071800000E916F000E906F000E936F000E926F97
:10072800000E956F000E946F000E976F000E966F77
:10073800000E996F000E986F000E9B6F000E9A6F57
:10074800000E9D6F000E9C6F7E8E7F827988849646
:100758007C9686840E01B4957C9E849E06EC14F0EB
:10076800E9EC13F0025007E1FA0E015CD8B0BFEFD4
:1007780003F0C1EF03F0C2EF03F07C84809288920B
:100788007C9684967C988498000E0001856F010EF3
:100798007D6FAA0E816F0F0E826FA60E836F0F0EEC
:1007A800846F000E806FC70E7F6F000E7C6F010E86
:1007B800866F000E896FC70E886F250E8A6F0F0E21
:1007C8008B6F210E8C6F0F0E8D6F86840E01B49582
:1007D8007C9E849E8686B497809688968EB4F7EF22
:1007E80003F0F9EF03F0F2EF03F07C8E93EC12F0D4
:1007F80005C08EF006C08FF00BEC13F005C090F02A
:1008080006C091F0BBEC12F005C092F006C093F060
:10081800E3EC12F005C094F006C095F0290E4D6E79
:10082800960E4C6E7F0EE82EFED74C2EFCD74D2E22
:10083800FAD700F07C9E8EB624EF04F026EF04F081
:100848001FEF04F0808693EC12F005C096F006C006
:1008580097F00BEC13F005C098F006C099F0BBECCC
:1008680012F005C09AF006C09BF0E3EC12F005C048
:100878009CF006C09DF0290E4D6E960E4C6E7F0EB4
:10088800E82EFED74C2EFCD74D2EFAD700F08096D6
:100898007C0E196E000E1A6E850E1B6E000E1C6EF5
:1008A800010E1D6E50EC10F0030E0F6EE80E0E6E6A
:1008B80094C00CF095C00DF020EC12F0010E0C2441
:1008C80000017A6F000E0D207B6FE3EC12F000013F
:1008D8009C51055C0C6E9D5106580D6E7AC00EF049
:1008E8007BC00FF020EC12F00CC0A4F00DC0A5F0F6
:1008F800B00E0001A45D040EA559D8B086EF04F02F
:1009080088EF04F04CEF04F0A55109E11F0EA45D37
:10091800D8A091EF04F093EF04F04CEF04F052C02C
:1009280001F053C002F0C9EC13F0010E13EC14F0FF
:100938007C0E1E6E000E1F6E850E206E000E216E40
:10094800010E226EB6EC10F0110E4D6E3C0E4C6E80
:10095800CB0EE82EFED74C2EFCD74D2EFAD700F042
:100968007C0E1E6E000E1F6E850E206E000E216E10
:10097800010E226EB6EC10F0110E4D6E3C0E4C6E50
:10098800CB0EE82EFED74C2EFCD74D2EFAD700F012
:10099800030E0F6EE80E0E6E8EC00CF08FC00DF0B9
:1009A80020EC12F0010E0C2400017A6F000E0D20CD
:1009B8007B6F93EC12F000019651055C0C6E975119
:1009C80006580D6E7AC00EF07BC00FF020EC12F0C6
:1009D8000CC09EF00DC09FF0030E0F6EE80E0E6E59
:1009E80090C00CF091C00DF020EC12F0010E0C2418
:1009F80000017A6F000E0D207B6F0BEC13F00001E5
:100A08009851055C0C6E995106580D6E7AC00EF01F
:100A18007BC00FF020EC12F00CC0A0F00DC0A1F0CC
:100A2800030E0F6EE80E0E6E92C00CF093C00DF020
:100A380020EC12F0010E0C2400017A6F000E0D203C
:100A48007B6FBBEC12F000019A51055C0C6E9B5158
:100A580006580D6E7AC00EF07BC00FF020EC12F035
:100A68000CC0A2F00DC0A3F0030E0F6EE80E0E6EC0
:100A780094C00CF095C00DF020EC12F0010E0C247F
:100A880000017A6F000E0D207B6FE3EC12F000017D
:100A98009C51055C0C6E9D5106580D6E7AC00EF087
:100AA8007BC00FF020EC12F00CC0A4F00DC0A5F034
:100AB8009E0E286E000E296E1FEC00F00001A66F36
:100AC8007C0E1E6E000E1F6E850E206E000E216EAF
:100AD800000E226EB6EC10F00A0E0001A66177EF48
:100AE80005F079EF05F09DEF05F020EE7CF000EEC3
:100AF80060F0080EDBCFEBFFE806FCE220EE85F0A5
:100B080000EE69F0080EDBCFEBFFE806FCE29E0E74
:100B1800726F000E736F8E0E746F000E756F960EE7
:100B2800766F000E776FA6C078F06AEC0AF04CEF8B
:100B380004F07C0E1E6E000E1F6E850E206E000ED9
:100B4800216E010E226E7AEC11F0000E0001796F11
:100B58005DEF06F0020E4D6EA00E4C6E920EE82E62
:100B6800FED74C2EFCD74D2EFAD700D0030E0F6EB1
:100B7800E80E0E6E8EC00CF08FC00DF020EC12F057
:100B8800010E0C2400017A6F000E0D207B6F93EC90
:100B980012F000019651055C0C6E975106580D6EC7
:100BA8007AC00EF07BC00FF020EC12F00CC09EF063
:100BB8000DC09FF0030E0F6EE80E0E6E90C00CF085
:100BC80091C00DF020EC12F0010E0C2400017A6F98
:100BD800000E0D207B6F0BEC13F000019851055CA3
:100BE8000C6E995106580D6E7AC00EF07BC00FF04E
:100BF80020EC12F00CC0A0F00DC0A1F0030E0F6E97
:100C0800E80E0E6E92C00CF093C00DF020EC12F0BE
:100C1800010E0C2400017A6F000E0D207B6FBBECD7
:100C280012F000019A51055C0C6E9B5106580D6E2E
:100C38007AC00EF07BC00FF020EC12F00CC0A2F0CE
:100C48000DC0A3F0030E0F6EE80E0E6E94C00CF0EC
:100C580095C00DF020EC12F0010E0C2400017A6F03
:100C6800000E0D207B6FE3EC12F000019C51055C37
:100C78000C6E9D5106580D6E7AC00EF07BC00FF0B9
:100C880020EC12F00CC0A4F00DC0A5F00A0E000173
:100C9800A619D8A452EF06F054EF06F05CEF06F060
:100CA8009E0E286E000E296E1FEC00F00001A66F44
:100CB800792B130E796563EF06F065EF06F0AEEF5A
:100CC80005F00A0EA619D8B46CEF06F06EEF06F020
:100CD80070EF06F079EF05F020EE7CF000EE37F0CB
:100CE800080EDBCFEBFFE806FCE220EE85F000EE15
:100CF80040F0080EDBCFEBFFE806FCE2E7EC0CF077
:100D08004CEF04F01DEF00F00450800B0D6E045002
:100D18000424136E03AE93EF06F095EF06F096EFFA
:100D280006F013801350D8B49CEF06F09EEF06F03F
:100D3800B1EF06F01328D8A4A4EF06F0A6EF06F04A
:100D4800AEEF06F0000E016E000E026E000E036E8E
:100D5800000E046E038EB9EF06F0000E016E000E51
:100D6800026E000E036E000E046E0850800B0D1A02
:100D780008500824126E07AEC4EF06F0C6EF06F05E
:100D8800C7EF06F012801250D8B4CDEF06F0CFEFBF
:100D980006F0E2EF06F01228D8A4D5EF06F0D7EF58
:100DA80006F0DFEF06F0000E056E000E066E000E70
:100DB800076E000E086E078EEAEF06F0000E056E4D
:100DC800000E066E000E076E000E086E1250D8B4A4
:100DD800F0EF06F0F2EF06F0FAEF06F01350D8A4A1
:100DE800F8EF06F0FAEF06F004EF07F0000E016ED8
:100DF800000E026E000E036E000E046E9CEF08F0EB
:100E080007500102F3CF18F0F4CF19F018500E6E06
:100E18000F6A106A116A1950146E156A166A176AF1
:100E280006500202F3CF18F0F4CF19F018500E262E
:100E3800000E0F221022112219501426000E15221E
:100E48001622172205500302F3CF18F0F4CF19F039
:100E580018500E26000E0F221022112219501426A7
:100E6800000E15221622172210C011F00FC010F024
:100E78000EC00FF00E6A05500202F3CF18F0F4CF3F
:100E880019F018500E2619500F22000E1022000ECD
:100E9800112206500102F3CF18F0F4CF19F01850C0
:100EA8000E2619500F22000E1022000E112210C01B
:100EB80011F00FC010F00EC00FF00E6A05500102BD
:100EC800F3CF18F0F4CF19F018500E2619500F224E
:100ED800000E1022000E112207500202F3CF18F064
:100EE800F4CF19F01850142619501522000E1622A6
:100EF800000E172206500302F3CF18F0F4CF19F0B2
:100F08001850142619501522000E1622000E17220A
:100F180007500302F3CF18F0F4CF19F01850096EF8
:100F280019500A6E0B6A0C6A0BC00CF00AC00BF061
:100F380009C00AF0096A095014260A5015220B50F4
:100F480016220C5017220EC009F00FC00AF010C06C
:100F58000BF011C00CF0190EB7EF07F0D8900C3257
:100F68000B320A320932E82EB2EF07F00950142684
:100F78000A5015220B5016220C50172210C011F0DF
:100F88000FC010F00EC00FF00E6A125013C009F017
:100F98000A6A0926000E0A22820E0924186EFF0E1C
:100FA8000A20196EEDEF07F0D8901436153616366C
:100FB800173611AEE2EF07F0E4EF07F0E5EF07F0C0
:100FC8001480D8900E360F36103611361806D8A071
:100FD800190616AEF2EF07F0F4EF07F0D8EF07F0B6
:100FE800000E126E11AEFBEF07F0FDEF07F021EFD8
:100FF80008F0FF0E0E14096EFF0E0F140A6EFF0E96
:1010080010140B6E7F0E11140C6E09500A100B1081
:101018000C10D8B412EF08F014EF08F018EF08F02D
:10102800010E126E21EF08F014A01DEF08F01FEF5B
:1010380008F021EF08F014EF08F01250D8B427EFA9
:1010480008F029EF08F04DEF08F0010E1426000E05
:1010580015221622172217A034EF08F036EF08F0F1
:101068004DEF08F014C009F015C00AF016C00BF0D7
:1010780017C00CF00C340C320B320A32093209C09A
:1010880014F00AC015F00BC016F00CC017F0184A7F
:10109800192A19BE58EF08F0195008E11828D8A0E5
:1010A80058EF08F05AEF08F064EF08F0000E146EDD
:1010B800000E156E800E166E7F0E176E92EF08F0FA
:1010C80019BE71EF08F0195006E11804D8B06FEF97
:1010D80008F071EF08F07DEF08F0000E146E000EB6
:1010E800156E000E166E000E176E000E0D6E92EF46
:1010F80008F018C013F0FF0E1416FF0E15167F0E19
:101108001616000E171613A08CEF08F08EEF08F0D5
:101118008FEF08F0168ED8901330176E0D501712F7
:1011280014C001F015C002F016C003F017C004F097
:1011380012001250800B1F6E12501224266E11AE30
:10114800A8EF08F0AAEF08F0ABEF08F026802650C9
:10115800D8B4B1EF08F0B3EF08F0C8EF08F02628CC
:10116800D8A4B9EF08F0BBEF08F0C3EF08F0000E01
:101178000F6E000E106E000E116E000E126E118EA4
:10118800000E126ED0EF08F0000E0F6E000E106EFB
:10119800000E116E000E126E1650800B1F1A16509C
:1011A8001624276E15AEDBEF08F0DDEF08F0DEEF52
:1011B80008F027802750D8B4E4EF08F0E6EF08F0ED
:1011C800FBEF08F02728D8A4ECEF08F0EEEF08F0C2
:1011D800F6EF08F0000E136E000E146E000E156E7A
:1011E800000E166E158E000E166E03EF09F0000E37
:1011F800136E000E146E000E156E000E166E135050
:10120800141015101610D8A40CEF09F00EEF09F001
:1012180026EF09F0000E0F6E000E106E000E116E14
:10122800000E126E800E11127F0E12121F50121233
:101238000FC00FF010C010F011C011F012C012F062
:1012480069EF0AF02650D8A42CEF09F02EEF09F028
:1012580038EF09F0000E0F6E000E106E000E116EC2
:10126800000E126E69EF0AF0275026C017F0186AB0
:10127800175E000E185A7F0E1724206E000E1820D5
:10128800216E0FC01BF010C01CF011C01DF012C061
:101298001EF0000E0F6E000E106E000E116E000E86
:1012A800126E000E226E000E236E000E246E000ECB
:1012B800256E000E276E99EF09F02750D8B467EF16
:1012C80009F069EF09F080EF09F0D8901B361C3659
:1012D8001D361E36D8900F3610361136123625AE0A
:1012E80078EF09F07AEF09F07BEF09F00F80D890DA
:1012F800223623362436253613501B5C14501C58CE
:1013080015501D5816501E58D8A08DEF09F08FEFB4
:1013180009F098EF09F0258C13501B5E14501C5AE5
:1013280015501D5A16501E5A272A190E27649FEF6A
:1013380009F0A1EF09F061EF09F01B501C101D1016
:101348001E10D8B4AAEF09F0ACEF09F0C4EF09F009
:101358002280C4EF09F0D8900F36103611361236B5
:1013680025AEB9EF09F0BBEF09F0BCEF09F00F802B
:10137800D89022362336243625362006D8A02106D2
:1013880011AEC9EF09F0CBEF09F0AFEF09F0000E8D
:10139800276E25AED2EF09F0D4EF09F0F8EF09F087
:1013A800FF0E2214176EFF0E2314186EFF0E24145E
:1013B800196E7F0E25141A6E1750181019101A106E
:1013C800D8B4E9EF09F0EBEF09F0EFEF09F0010EFF
:1013D800276EF8EF09F00FA0F4EF09F0F6EF09F027
:1013E800F8EF09F0EBEF09F02750D8B4FEEF09F059
:1013F80000EF0AF024EF0AF0010E0F26000E10226B
:101408001122122212A00BEF0AF00DEF0AF024EFBE
:101418000AF00FC017F010C018F011C019F012C070
:101428001AF01A341A3219321832173217C00FF05C
:1014380018C010F019C011F01AC012F0204A212A61
:1014480021BE2FEF0AF0215008E12028D8A02FEF65
:101458000AF031EF0AF03CEF0AF0000E216E206826
:10146800000E0F6E000E106E000E116E000E126E42
:1014780021BE49EF0AF0215006E12004D8B047EF19
:101488000AF049EF0AF057EF0AF0000E216E000E3D
:10149800206E000E0F6E000E106E000E116E000E04
:1014A800126E000E1F6E20C026F026A05EEF0AF016
:1014B80060EF0AF063EF0AF0118E64EF0AF0119EF4
:1014C800D8902630126E1AEF09F01200020E0001B1
:1014D8007819D8A472EF0AF074EF0AF082EF0AF0D4
:1014E800600E1E6E000E1F6E690E206E000E216EBD
:1014F80080EC0EF08082020E13EC14F0030E000153
:101508007819D8A48AEF0AF08CEF0AF099EF0AF05C
:10151800600E1E6E000E1F6E690E206E000E216E8C
:1015280009EC0EF0030E13EC14F0040E0001781908
:10153800D8A4A1EF0AF0A3EF0AF0B0EF0AF0600E0A
:101548001E6E000E1F6E690E206E000E216E69EC75
:101558000FF0040E13EC14F0050E00017819D8A44E
:10156800B8EF0AF0BAEF0AF0D6EF0AF0600E1E6E76
:10157800000E1F6E690E206E000E216E000E226E88
:101588007AEC11F0600E1E6E000E1F6E690E206E52
:10159800000E216E80EC0EF0070E13EC14F0020E14
:1015A80013EC14F0060E00017819D8A4DEEF0AF047
:1015B800E0EF0AF0FCEF0AF0600E1E6E000E1F6EE0
:1015C800690E206E000E216E000E226E7AEC11F06C
:1015D800600E1E6E000E1F6E690E206E000E216ECC
:1015E80009EC0EF0070E13EC14F0030E13EC14F0D4
:1015F800070E00017819D8A404EF0BF006EF0BF0E2
:1016080013EF0BF0600E1E6E000E1F6E690E206E3B
:10161800000E216EF5EC0EF0050E13EC14F0080E1A
:1016280000017819D8A41BEF0BF01DEF0BF02AEF7F
:101638000BF0600E1E6E000E1F6E690E206E000EFF
:10164800216EDDEC0FF0060E13EC14F0090E00010C
:101658007819D8A432EF0BF034EF0BF056EF0BF0FB
:101668007C867C88600E1E6E000E1F6E690E206ED2
:10167800000E216E010E226EB6EC10F020EE60F026
:1016880000EE37F0080EDBCFEBFFE806FCE220EEB9
:1016980069F000EE40F0080EDBCFEBFFE806FCE255
:1016A800E7EC0CF01200096E0950D8B45EEF0BF0AD
:1016B80060EF0BF082EF0BF004BE67EF0BF065EF05
:1016C8000BF082EF0BF001C005F002C006F003C07A
:1016D80007F004C008F0051E061E071E081E052A8E
:1016E800000E06220722082205C00BF006C00CF0E7
:1016F80007C00DF008C00EF08AEF0BF001C00BF028
:1017080002C00CF003C00DF004C00EF0015002102E
:1017180003100410D8A493EF0BF095EF0BF09FEF94
:101728000BF0000E016E000E026E000E036E000E2E
:10173800046E30EF0CF0960E0A6EA9EF0BF00A2A31
:10174800D8900E320D320C320B32000E0B14056E8F
:10175800000E0C14066E000E0D14076EFE0E0E140D
:10176800086E0550061007100810D8A4BEEF0BF03D
:10177800C0EF0BF0A3EF0BF0CEEF0BF00A2A010E2F
:101788000B26000E0C220D220E22D8900E320D329E
:101798000C320B32000E0B14056E000E0C14066E84
:1017A800000E0D14076EFF0E0E14086E055006107D
:1017B80007100810D8A4E3EF0BF0E5EF0BF0C2EF29
:1017C8000BF0EDEF0BF00A06D8900B360C360D3601
:1017D8000E360DBEF2EF0BF0F4EF0BF0FCEF0BF052
:1017E800020E0A60FAEF0BF0FCEF0BF0E7EF0BF0DC
:1017F8000AB001EF0CF003EF0CF004EF0CF00D9EB3
:10180800D8900A320AC005F0066A076A086A05C055
:1018180008F0076A066A056A05500B1206500C1292
:1018280007500D1208500E120950D8B41EEF0CF0D4
:1018380020EF0CF028EF0CF004BE27EF0CF025EF9A
:101848000CF028EF0CF00E8E0BC001F00CC002F06B
:101858000DC003F00EC004F0120020EE02F0135089
:10186800D9261450DA22DF50D8B43DEF0CF03FEF00
:101878000CF073EF0CF013C0D9FF14C0DAFFDF507F
:10188800156E1550016E026A20EE03F01350D9262A
:101898001450DA22DECF03F0DDCF04F0B6EC13F0FB
:1018A80001C00CF002C00DF0000E0F6E640E0E6E3B
:1018B80020EC12F020EE03F01350D9261450DA224F
:1018C800DF50166E0C50165C176E20EE03F01350A6
:1018D800D9261450DA22DF50186E96EF0CF0000E5D
:1018E800176E13C0D9FF14C0DAFFDF50156E1550FC
:1018F800016E026A20EE03F01350D9261450DA2242
:10190800DECF03F0DDCF04F0B6EC13F001C00CF02D
:1019180002C00DF0000E0F6E640E0E6E20EC12F079
:101928000C50186E20EE01F01350D9261450DA220C
:10193800DF50D8B4A2EF0CF0A4EF0CF0C6EF0CF017
:1019480020EE05F01350D9261450DA22DECF15F018
:10195800DDCF16F015C0D9FF16C0DAFF17C0DFFFBC
:1019680020EE07F01350D9261450DA22DECF15F0F6
:10197800DDCF16F015C0D9FF16C0DAFF18C0DFFF9B
:10198800E6EF0CF020EE05F01350D9261450DA22B9
:10199800DECF15F0DDCF16F015C0D9FF16C0DAFF7F
:1019A80018C0DFFF20EE07F01350D9261450DA22B2
:1019B800DECF15F0DDCF16F015C0D9FF16C0DAFF5F
:1019C80017C0DFFF12007E9E7F9279985506560653
:1019D80070EF0DF0000E5524D96EDA6A010EDA2286
:1019E800DE04D8A4FAEF0CF0FCEF0CF03AEF0DF09F
:1019F800370E196E000E1A6E400E1B6E000E1C6E0E
:101A08005AEC12F0000E546E370E196E000E1A6E54
:101A1800400E1B6E000E1C6E000E1D6E50EC10F07A
:101A28005504556E5650020D000EF324D96E020E61
:101A3800F420DA6EDE50525C5350800A4B6EDE5052
:101A4800800A4B58D8A02BEF0DF02DEF0DF016EFB4
:101A58000DF05606370E196E000E1A6E400E1B6EEC
:101A6800000E1C6E5AEC12F070EF0DF0000E5524AB
:101A7800D96EDA6A010EDA22DE04D8B446EF0DF028
:101A880048EF0DF070EF0DF020EE37F000EE24F087
:101A9800080EDBCFEBFFE806FCE220EE40F000EE9C
:101AA8002DF0080EDBCFEBFFE806FCE2000E552414
:101AB800D96EDA6A010EDA22DF5019EC11F0370E0E
:101AC8001E6E000E1F6E400E206E000E216E010E5F
:101AD800226E7AEC11F0550655BE77EF0DF075EFD2
:101AE8000DF0EEEF0CF07C8E290E4A6E960E496EC4
:101AF8007F0EE82EFED7492EFCD74A2EFAD700F0E3
:101B0800030012001C341D34236E2350D8A48FEF19
:101B18000DF091EF0DF09BEF0DF0000E1A6E000E18
:101B28001B6E000E1C6E000E1D6E08EF0EF01AC024
:101B38001EF01BC01FF01CC020F01DC021F0200E9D
:101B4800ABEF0DF0D890213220321F321E32E82E32
:101B5800A6EF0DF01E50226E1C8EFF0E1A16FF0EF9
:101B68001B16FF0E1C16000E1D16960E235E23BEB6
:101B7800C2EF0DF0C0EF0DF0D8EF0DF02350800A42
:101B8800970FD8B0CAEF0DF0CCEF0DF0CEEF0DF0F7
:101B980091EF0DF0D8901D321C321B321A32233EC1
:101BA800CEEF0DF0F0EF0DF01F0E2364DEEF0DF019
:101BB800E0EF0DF0E8EF0DF091EF0DF0D8901A3648
:101BC8001B361C361D3623062350D8A4EEEF0DF025
:101BD800F0EF0DF0E2EF0DF02250D8B4F6EF0DF073
:101BE800F8EF0DF000EF0EF01D1E1C1E1B1E1A6CE8
:101BF800000E1B221C221D221AC01AF01BC01BF04B
:101C08001CC01CF01DC01DF012001EC019F01FC022
:101C18001AF020C01BF021C01CF05AEC12F020EE84
:101C280001F01E50D9261F50DA22000EDF6E20EE7A
:101C380001F02050D9262150DA22010EDF6E1EC095
:101C4800D9FF1FC0DAFF140EDF6E20C0D9FF21C0F4
:101C5800DAFF140EDF6E4FEF0EF0680E226EE40E00
:101C6800E82EFED7222EFCD700D01EC0D9FF1FC0F9
:101C7800DAFFDF2A20C0D9FF21C0DAFFDF2A1EC021
:101C880013F01FC014F031EC0CF020C013F021C089
:101C980014F031EC0CF01EC0D9FF1FC0DAFF320E71
:101CA800DE18D8A45AEF0EF05CEF0EF031EF0EF00C
:101CB80020C0D9FF21C0DAFF320EDE18D8A467EFA2
:101CC8000EF069EF0EF031EF0EF0150E236E4B0E8D
:101CD800226EBE0EE82EFED7222EFCD7232EFAD770
:101CE80000D01EC019F01FC01AF020C01BF021C080
:101CF8001CF05AEC12F012001EC019F01FC01AF0A6
:101D080020C01BF021C01CF05AEC12F020EE01F0AC
:101D18001E50D9261F50DA22010EDF6E20EE01F088
:101D28002050D9262150DA22000EDF6E1EC0D9FFBE
:101D38001FC0DAFF140EDF6E20C0D9FF21C0DAFF02
:101D4800140EDF6EC6EF0EF0680E226EE40EE82E5B
:101D5800FED7222EFCD700D01EC0D9FF1FC0DAFF45
:101D6800DF2A20C0D9FF21C0DAFFDF2A1EC013F006
:101D78001FC014F031EC0CF020C013F021C014F097
:101D880031EC0CF01EC0D9FF1FC0DAFF330EDF6044
:101D9800D0EF0EF0D2EF0EF0DEEF0EF020C0D9FF3C
:101DA80021C0DAFF320EDF64DCEF0EF0DEEF0EF05A
:101DB800A8EF0EF0120E236E0C0E226E950EE82E72
:101DC800FED7222EFCD7232EFAD700F01EC019F01A
:101DD8001FC01AF020C01BF021C01CF05AEC12F0F2
:101DE80012001EC019F01FC01AF020C01BF021C03D
:101DF8001CF05AEC12F020EE01F01E50D9261F50AC
:101E0800DA22010EDF6E20EE01F02050D926215093
:101E1800DA22000EDF6E1EC0D9FF1FC0DAFF140ED3
:101E2800DF6E20C0D9FF21C0DAFF140EDF6E3AEF53
:101E38000FF0D00E226ECA0EE82EFED7222EFCD747
:101E48001EC0D9FF1FC0DAFFDF2A20C0D9FF21C07A
:101E5800DAFFDF2A1EC013F01FC014F031EC0CF0BB
:101E680020C013F021C014F031EC0CF01EC0D9FFD3
:101E78001FC0DAFF320EDF6444EF0FF046EF0FF0B9
:101E88001DEF0FF020C0D9FF21C0DAFF320EDF644A
:101E980050EF0FF052EF0FF01DEF0FF0150E236EFD
:101EA8004B0E226EBE0EE82EFED7222EFCD7232E16
:101EB800FAD700D01EC019F01FC01AF020C01BF0BE
:101EC80021C01CF05AEC12F012001EC019F01FC0FD
:101ED8001AF020C01BF021C01CF05AEC12F020EEC2
:101EE80001F01E50D9261F50DA22010EDF6E20EEB7
:101EF80001F02050D9262150DA22000EDF6E1EC0D4
:101F0800D9FF1FC0DAFF140EDF6E20C0D9FF21C031
:101F1800DAFF140EDF6EAEEF0FF0D00E226ECA0E8F
:101F2800E82EFED7222EFCD71EC0D9FF1FC0DAFF2D
:101F3800DF2A20C0D9FF21C0DAFFDF2A1EC013F034
:101F48001FC014F031EC0CF020C013F021C014F0C5
:101F580031EC0CF01EC0D9FF1FC0DAFF320EDF646F
:101F6800B8EF0FF0BAEF0FF091EF0FF020C0D9FFE4
:101F780021C0DAFF320EDF64C4EF0FF0C6EF0FF0B6
:101F880091EF0FF0230E236E180E226E2C0EE82E02
:101F9800FED7222EFCD7232EFAD700D01EC019F068
:101FA8001FC01AF020C01BF021C01CF05AEC12F020
:101FB80012001EC019F01FC01AF020C01BF021C06B
:101FC8001CF05AEC12F020EE01F01E50D9261F50DA
:101FD800DA22000EDF6E20EE01F02050D9262150C3
:101FE800DA22010EDF6E1EC0D9FF1FC0DAFF140E01
:101FF800DF6E20C0D9FF21C0DAFF140EDF6E22EF9A
:1020080010F0D00E226ECA0EE82EFED7222EFCD774
:102018001EC0D9FF1FC0DAFFDF2A20C0D9FF21C0A8
:10202800DAFFDF2A1EC013F01FC014F031EC0CF0E9
:1020380020C013F021C014F031EC0CF01EC0D9FF01
:102048001FC0DAFF320EDF642CEF10F02EEF10F015
:1020580005EF10F020C0D9FF21C0DAFF320EDF648F
:1020680038EF10F03AEF10F005EF10F0180E236E6D
:102078008A0E226EE80EE82EFED7222EFCD7232EDB
:10208800FAD71EC019F01FC01AF020C01BF021C0DB
:102098001CF05AEC12F0120020EE02F01950D9266A
:1020A8001A50DA22010EDF6E20EE02F01B50D926FC
:1020B8001C50DA22010EDF6E20EE01F01950D926ED
:1020C8001A50DA221DC0DFFF20EE01F01B50D9267E
:1020D8001C50DA221DC0DFFF8FEF10F0D00E1E6EED
:1020E800CA0EE82EFED71E2EFCD719C0D9FF1AC07B
:1020F800DAFFDF2A1BC0D9FF1CC0DAFFDF2A19C0AC
:1021080013F01AC014F031EC0CF01BC013F01CC013
:1021180014F031EC0CF019C0D9FF1AC0DAFF150E13
:10212800DF6099EF10F09BEF10F0A7EF10F01BC0E5
:10213800D9FF1CC0DAFF140EDF64A5EF10F0A7EF7B
:1021480010F072EF10F05450D8A4ADEF10F0AFEFCC
:1021580010F0B5EF10F0000E536E000E526E010E27
:10216800546E12001EC019F01FC01AF020C01BF0D8
:1021780021C01CF05AEC12F020EE01F01E50D926B6
:102188001F50DA2222C0DFFF20EE01F02050D926AE
:102198002150DA2222C0DFFFEFEF10F0D00E236EBD
:1021A800CA0EE82EFED7232EFCD71EC0D9FF1FC0AB
:1021B800DAFFDF2A20C0D9FF21C0DAFFDF2A1EC0DC
:1021C80013F01FC014F031EC0CF020C013F021C044
:1021D80014F031EC0CF01EC0D9FF1FC0DAFF370E27
:1021E800DF64F9EF10F0FBEF10F0D2EF10F020C031
:1021F800D9FF21C0DAFF370EDF6405EF11F007EFD2
:1022080011F0D2EF10F0D00E236ECA0EE82EFED7D2
:10221800232EFCD71EC019F01FC01AF020C01BF0D7
:1022280021C01CF05AEC12F01200366E020E36185D
:10223800D8A421EF11F023EF11F02DEF11F0240EA7
:102248001E6E000E1F6E2D0E206E000E216E09EC04
:102258000EF0030E3618D8A434EF11F036EF11F053
:1022680040EF11F0240E1E6E000E1F6E2D0E206E14
:10227800000E216E80EC0EF0040E3618D8A447EF3D
:1022880011F049EF11F053EF11F0240E1E6E000EFD
:102298001F6E2D0E206E000E216E69EC0FF0050EDC
:1022A8003618D8A45AEF11F05CEF11F066EF11F070
:1022B800240E1E6E000E1F6E2D0E206E000E216E57
:1022C800DDEC0FF0060E3618D8A46DEF11F06FEFA5
:1022D80011F079EF11F0240E1E6E000E1F6E2D0EF8
:1022E800206E000E216EF5EC0EF0120020EE01F0CB
:1022F8001E50D9261F50DA2222C0DFFF20EE01F03F
:102308002050D9262150DA2222C0DFFFA9EF11F090
:10231800D00E236ECA0EE82EFED7232EFCD71EC081
:10232800D9FF1FC0DAFFDF2A20C0D9FF21C0DAFF9A
:10233800DF2A1EC013F01FC014F031EC0CF020C0CF
:1023480013F021C014F031EC0CF01EC0D9FF1FC0EF
:10235800DAFF3C0EDF64B3EF11F0B5EF11F08CEF4C
:1023680011F020C0D9FF21C0DAFF3C0EDF64BFEFB7
:1023780011F0C1EF11F08CEF11F0250E246EEF0E65
:10238800236E710EE82EFED7232EFCD7242EFAD703
:1023980000F01EC019F01FC01AF020C01BF021C0A9
:1023A8001CF05AEC12F012007D947D987B9E7F9C65
:1023B80085948598839E879C050E0E01746F060E82
:1023C800766F070E696F080E886FBD508F0B100966
:1023D800BD6EE00EBE16BF50F00B0109BF6EC70EF2
:1023E800BC6EBD8E000EAA6E000EA66E000E0F010A
:1023F800256F000E216FFC0EAD16F30EAD16CF0E35
:10240800AD163F0EAD16AB88AB50F00B0C09AB6E9A
:10241800AB8EA788A750F00B0C09A76EA78E26894C
:102428002651F00B0C09266F268F22892251F00BBA
:102438000C09226F228F1200000E116E000E106E12
:102448000E500F10D8B42BEF12F02DEF12F055EFFD
:1024580012F0010E126E35EF12F0D8900E360F36CC
:10246800122A0FAE3AEF12F03CEF12F031EF12F0F1
:10247800D890103611360E500C5C0F500D58D8A05D
:1024880048EF12F04AEF12F04FEF12F00E500C5EC8
:102498000F500D5A1080D8900F320E32122E3CEF8A
:1024A80012F010C00CF011C00DF012007AEF12F00B
:1024B80019C0D9FF1AC0DAFFDF061BC0D9FF1CC03C
:1024C800DAFFDF06150E1D6EC60EE82EFED71D2E8E
:1024D800FCD700D019C013F01AC014F031EC0CF07E
:1024E8001BC013F01CC014F031EC0CF019C0D9FF5C
:1024F8001AC0DAFFDF50D8B484EF12F086EF12F07A
:1025080092EF12F01BC0D9FF1CC0DAFFDF50D8A42D
:1025180090EF12F092EF12F05CEF12F0120034EC30
:1025280014F0520E1EEC14F0B60E1EEC14F02AEC49
:1025380014F0530E1EEC14F0010E33EC13F0076E7A
:1025480007500A6E0B6A000E33EC13F0076E075043
:10255800096E086A0A5008100A6E0B5009100B6EB3
:102568002FEC14F00AC005F00BC006F0120034EC92
:1025780014F0520E1EEC14F0B80E1EEC14F02AECF7
:1025880014F0530E1EEC14F0010E33EC13F0076E2A
:1025980007500A6E0B6A000E33EC13F0076E0750F3
:1025A800096E086A0A5008100A6E0B5009100B6E63
:1025B8002FEC14F00AC005F00BC006F0120034EC42
:1025C80014F0520E1EEC14F0B40E1EEC14F02AECAB
:1025D80014F0530E1EEC14F0010E33EC13F0076EDA
:1025E80007500A6E0B6A000E33EC13F0076E0750A3
:1025F800096E086A0A5008100A6E0B5009100B6E13
:102608002FEC14F00AC005F00BC006F0120034ECF1
:1026180014F0520E1EEC14F0BA0E1EEC14F02AEC54
:1026280014F0530E1EEC14F0010E33EC13F0076E89
:1026380007500A6E0B6A000E33EC13F0076E075052
:10264800096E086A0A5008100A6E0B5009100B6EC2
:102658002FEC14F00AC005F00BC006F01200036E50
:10266800A2EC13F00E01DA87A2EC13F0D5CE04F039
:10267800A2EC13F00350D8B444EF13F048EF13F072
:10268800026A022A49EF13F0026A023A02460E0170
:10269800DA510218DF0B0218DA6FDA8904501200D7
:1026A8008DEC13F0010E036E000ED9EC13F03F0E03
:1026B800056E550EE82EFED7052EFCD700F0030E4A
:1026C800036E000ED9EC13F0D50E036E010ED9EC93
:1026D80013F07E9E7F927998869E87928198120049
:1026E80002EE00F0C80EEE6AE806FDE101EE00F029
:1026F800640EEE6AE806FDE10001A66B00EE4EF0FE
:10270800090EEE6AE806FDE157905792000169EF5D
:1027180003F00E01D951F00B0809D96FD98B9F0E20
:10272800D66F848A848CA79BA79D1D0E1D6F1E0ED5
:102738001C6F1C0E6F6F1B0E706F12000E01D8B548
:10274800A8EF13F0AAEF13F0A2EF13F0DACE01F01E
:102758001F0E0116D8A4B3EF13F0B5EF13F0A2EFD4
:1027680013F0120001500302F3CF05F0F4CF06F086
:1027780001500402F350062602500302F3500626C5
:1027880005C001F006C002F01200000E546E56504B
:10279800020D000EF324D96E020EF420DA6E01C089
:1027A800DEFF02C0DDFF562A1200046E34EC14F07E
:1027B800520E1EEC14F0045080091EEC14F0035065
:1027C8001EEC14F02FEC14F01200608060B0EFEFF4
:1027D80013F0F1EF13F0EAEF13F064CF03F0046A9B
:1027E80003C001F004C002F01200D6501F0B4009CC
:1027F800D66ED688F00ED616D588050ED46ED36858
:10280800D58E120085800E01AF810F015899FC0EFC
:102818005817030E5F6F60946088608E1200016E17
:10282800000E5524D96EDA6A010EDA2201C0DFFFE4
:10283800552A1200026EA2EC13F002C0D5FE120057
:102848000E01298BF28CF29AF28E1200A2EC13F090
:102858000E01DA831200A2EC13F00E01DA851200E1
:0A286800A2EC13F00E01DA81120059
:020000040020DA
:10000000FF0FFF0FFF0FFF0FFF0FFF0FFF0FFF0F80
:020000040030CA
:0C000000AAFFFFFF9FFFFFFFFFFFFFFFB5
:00000001FF
