:0400000014EF00F009
:1000080027820E0133AB0BEF00F00DEF00F010EF7D
:1000180000F00101DC4BDD2B0E01339B2792110010
:100028007FEF06F0000E0101C96F040EC86F8DEC5A
:1000380006F09CEC06F0000E026EC70E016E3BEC5B
:1000480005F0F6EC05F0809288927C9684967C9870
:100058008498000E0101D36F010ECB6FAA0ECF6FEB
:100068000F0ED06FA60ED16F0F0ED26F000ECE6F8F
:10007800C70ECD6F000ECA6F010ED46F000ED76F7A
:10008800C70ED66F250ED86F0F0ED96F210EDA6FF7
:100098000F0EDB6FCA0E146E010E156ED30E166EA0
:1000A800010E176E010E186EE1EC04F0090E206EB9
:1000B8001E0E1F6EE40EE82EFED71F2EFCD7202E34
:1000C800FAD700D00101C805C911D8A46EEF00F015
:1000D80070EF00F096EF00F0000E016E010E026E58
:1000E800DCC103F0DDC104F025EC06F001C0DCF151
:1000F80002C0DDF1CA0E196E010E1A6ED30E1B6E08
:10010800010E1C6E010E1D6E81EC04F0CA0E196EF4
:10011800010E1A6ED30E1B6E010E1C6E000E1D6EA4
:1001280081EC04F0020E0101C819C911D8A49FEF8F
:1001380000F0A1EF00F0ABEF00F0CA0E196E010E4F
:100148001A6ED30E1B6E010E1C6E18EC04F0640EB2
:10015800016E010E026E020E036E70EC06F0030EC5
:100168000101C819C911D8A4BCEF00F0BEEF00F016
:10017800D0EF00F0CA0E196E010E1A6ED30E1B6E68
:10018800010E1C6E4CEC02F0640E016E010E026E44
:10019800030E036E70EC06F0040E0101C819C911B4
:1001A800D8A4D9EF00F0DBEF00F0EDEF00F0CA0EB5
:1001B800196E010E1A6ED30E1B6E010E1C6E39ECF1
:1001C80003F0640E016E010E026E040E036E70ECF5
:1001D80006F0050E0101C819C911D8A4F6EF00F000
:1001E800F8EF00F016EF01F0CA0E196E010E1A6E44
:1001F800D30E1B6E010E1C6E000E1D6E81EC04F0FA
:10020800CA0E196E010E1A6ED30E1B6E010E1C6EED
:1002180018EC04F0640E016E010E026E020E036EFD
:1002280070EC06F0060E0101C819C911D8A41FEF19
:1002380001F021EF01F03FEF01F0CA0E196E010E37
:100248001A6ED30E1B6E010E1C6E000E1D6E81EC15
:1002580004F0CA0E196E010E1A6ED30E1B6E010E33
:100268001C6E4CEC02F0640E016E010E026E030E61
:10027800036E70EC06F0070E0101C819C911D8A465
:1002880048EF01F04AEF01F05CEF01F0CA0E196E79
:10029800010E1A6ED30E1B6E010E1C6EAEEC03F02F
:1002A800640E016E010E026E050E036E70EC06F010
:1002B800080E0101C819C911D8A465EF01F067EF4C
:1002C80001F079EF01F0CA0E196E010E1A6ED30E05
:1002D8001B6E010E1C6EC3EC02F0640E016E010E63
:1002E800026E060E036E70EC06F00A0E0101C819C4
:1002F800C911D8A482EF01F084EF01F04EEF00F0AD
:10030800000E016E010E026EDCC103F0DDC104F0C7
:1003180025EC06F001C0DCF102C0DDF14EEF00F083
:1003280014EF00F020EE02F00E50D9260F50DA221A
:10033800DF50D8B4A2EF01F0A4EF01F0D8EF01F03C
:100348000EC0D9FF0FC0DAFFDF50106E1050016EDB
:10035800026A20EE03F00E50D9260F50DA22DECFC3
:1003680003F0DDCF04F04DEC06F001C007F002C049
:1003780008F0000E0A6E640E096E83EC05F020EE9C
:1003880003F00E50D9260F50DA22DF50116E0750B5
:10039800115C126E20EE03F00E50D9260F50DA22AF
:1003A800DF50136EFBEF01F0000E126E0EC0D9FF86
:1003B8000FC0DAFFDF50106E1050016E026A20EE97
:1003C80003F00E50D9260F50DA22DECF03F0DDCF2E
:1003D80004F04DEC06F001C007F002C008F0000E72
:1003E8000A6E640E096E83EC05F00750136E20EE5A
:1003F80001F00E50D9260F50DA22DF50D8B407EF9B
:1004080002F009EF02F02BEF02F020EE05F00E509B
:10041800D9260F50DA22DECF10F0DDCF11F010C050
:10042800D9FF11C0DAFF12C0DFFF20EE07F00E502F
:10043800D9260F50DA22DECF10F0DDCF11F010C030
:10044800D9FF11C0DAFF13C0DFFF4BEF02F020EE37
:1004580005F00E50D9260F50DA22DECF10F0DDCF8E
:1004680011F010C0D9FF11C0DAFF13C0DFFF20EE72
:1004780007F00E50D9260F50DA22DECF10F0DDCF6C
:1004880011F010C0D9FF11C0DAFF12C0DFFF12004F
:1004980019C014F01AC015F01BC016F01CC017F0D4
:1004A800BDEC05F020EE01F01950D9261A50DA22D9
:1004B800000EDF6E20EE01F01B50D9261C50DA2208
:1004C800010EDF6E19C0D9FF1AC0DAFF140EDF6EF5
:1004D8001BC0D9FF1CC0DAFF140EDF6E92EF02F0CA
:1004E800680E1D6EE40EE82EFED71D2EFCD700D038
:1004F80019C0D9FF1AC0DAFFDF2A1BC0D9FF1CC0F8
:10050800DAFFDF2A19C00EF01AC00FF096EC01F0DE
:100518001BC00EF01CC00FF096EC01F019C0D9FFFB
:100528001AC0DAFF320EDE18D8A49DEF02F09FEF52
:1005380002F074EF02F01BC0D9FF1CC0DAFF320EC4
:10054800DE18D8A4AAEF02F0ACEF02F074EF02F0C4
:1005580019C00EF01AC00FF096EC01F01BC00EF097
:100568001CC00FF096EC01F019C014F01AC015F079
:100578001BC016F01CC017F0BDEC05F0120019C026
:1005880014F01AC015F01BC016F01CC017F0BDEC13
:1005980005F020EE01F01950D9261A50DA22000E83
:1005A800DF6E20EE01F01B50D9261C50DA22010E16
:1005B800DF6E19C0D9FF1AC0DAFF140EDF6E1BC038
:1005C800D9FF1CC0DAFF140EDF6E08EF03F0D00E5F
:1005D8001D6ECA0EE82EFED71D2EFCD719C0D9FFF6
:1005E8001AC0DAFFDF2A1BC0D9FF1CC0DAFFDF2AD6
:1005F80019C00EF01AC00FF096EC01F01BC00EF0F7
:100608001CC00FF096EC01F019C0D9FF1AC0DAFF30
:10061800320EDE18D8A413EF03F015EF03F0EBEF5A
:1006280002F01BC0D9FF1CC0DAFF320EDE18D8A4B6
:1006380020EF03F022EF03F0EBEF02F019C00EF009
:100648001AC00FF096EC01F01BC00EF01CC00FF0A2
:1006580096EC01F019C014F01AC015F01BC016F082
:100668001CC017F0BDEC05F0120019C014F01AC038
:1006780015F01BC016F01CC017F0BDEC05F020EEFD
:1006880001F01950D9261A50DA22010EDF6E20EE39
:1006980001F01B50D9261C50DA22000EDF6E19C05B
:1006A800D9FF1AC0DAFF140EDF6E1BC0D9FF1CC0B9
:1006B800DAFF140EDF6E7EEF03F0D00E1D6ECA0E49
:1006C800E82EFED71D2EFCD719C0D9FF1AC0DAFFB5
:1006D800DF2A1BC0D9FF1CC0DAFFDF2A19C00EF0C1
:1006E8001AC00FF096EC01F01BC00EF01CC00FF002
:1006F80096EC01F019C0D9FF1AC0DAFF320EDE18E5
:10070800D8A489EF03F08BEF03F061EF03F01BC06F
:10071800D9FF1CC0DAFF320EDE18D8A496EF03F01A
:1007280098EF03F061EF03F0310E1E6EB40E1D6EEC
:10073800660EE82EFED71D2EFCD71E2EFAD719C03E
:1007480014F01AC015F01BC016F01CC017F0BDEC51
:1007580005F0120019C014F01AC015F01BC016F0ED
:100768001CC017F0BDEC05F020EE01F01950D92699
:100778001A50DA22010EDF6E20EE01F01B50D92646
:100788001C50DA22000EDF6E19C0D9FF1AC0DAFF3A
:10079800140EDF6E1BC0D9FF1CC0DAFF140EDF6E0B
:1007A800F3EF03F0D00E1D6ECA0EE82EFED71D2EF5
:1007B800FCD719C0D9FF1AC0DAFFDF2A1BC0D9FF3E
:1007C8001CC0DAFFDF2A19C00EF01AC00FF096EC31
:1007D80001F01BC00EF01CC00FF096EC01F019C020
:1007E800D9FF1AC0DAFF320EDE18D8A4FEEF03F0E4
:1007F80000EF04F0D6EF03F01BC0D9FF1CC0DAFFEE
:10080800320EDE18D8A40BEF04F00DEF04F0D6EF8B
:1008180003F019C014F01AC015F01BC016F01CC064
:1008280017F0BDEC05F0120019C014F01AC015F04D
:100838001BC016F01CC017F0BDEC05F020EE01F04F
:100848001950D9261A50DA22010EDF6E20EE01F077
:100858001B50D9261C50DA22000EDF6E19C0D9FFB2
:100868001AC0DAFF140EDF6E1BC0D9FF1CC0DAFFF6
:10087800140EDF6E5EEF04F0680E1D6EE40EE82EB7
:10088800FED71D2EFCD700D019C0D9FF1AC0DAFF39
:10089800DF2A1BC0D9FF1CC0DAFFDF2A19C00EF0FF
:1008A8001AC00FF096EC01F01BC00EF01CC00FF040
:1008B80096EC01F019C0D9FF1AC0DAFF320EDF60DA
:1008C80068EF04F06AEF04F076EF04F01BC0D9FF7C
:1008D8001CC0DAFF310EDF6474EF04F076EF04F029
:1008E80040EF04F019C014F01AC015F01BC016F040
:1008F8001CC017F0BDEC05F0120020EE01F01950F5
:10090800D9261A50DA221DC0DFFF20EE01F01B5055
:10091800D9261C50DA221DC0DFFFBCEF04F0D00E30
:100928001E6ECA0EE82EFED71E2EFCD719C0D9FFA0
:100938001AC0DAFFDF2A1BC0D9FF1CC0DAFFDF2A82
:1009480019C00EF01AC00FF096EC01F01BC00EF0A3
:100958001CC00FF096EC01F019C00EF01AC00FF091
:1009680096EC01F01BC00EF01CC00FF096EC01F0E5
:1009780019C0D9FF1AC0DAFF320EDE18D8A4C7EFA3
:1009880004F0C9EF04F093EF04F01BC0D9FF1CC0BA
:10099800DAFF320EDE18D8A4D4EF04F0D6EF04F054
:1009A80093EF04F019C014F01AC015F01BC016F02C
:1009B8001CC017F0BDEC05F0120020EE02F0145038
:1009C800D9261550DA22010EDF6E20EE02F01650FD
:1009D800D9261750DA22010EDF6E20EE01F01450EE
:1009E800D9261550DA2218C0DFFF20EE01F0165084
:1009F800D9261750DA2218C0DFFF20EF05F0D00EF5
:100A0800196ECA0EE82EFED7192EFCD714C0D9FFCE
:100A180015C0DAFFDF2A16C0D9FF17C0DAFFDF2AB0
:100A280014C00EF015C00FF096EC01F016C00EF0D1
:100A380017C00FF096EC01F014C0D9FF15C0DAFF0B
:100A4800330EDF602AEF05F02CEF05F03AEF05F0E2
:100A580016C0D9FF17C0DAFF320EDF6436EF05F093
:100A680038EF05F003EF05F03AEF05F012007D943A
:100A78007D987B9E7F9C85948598839E879C050E98
:100A88000E01746F060E766F070E696F080E886F79
:100A9800BD508F0B1009BD6EE00EBE16BF50F00B97
:100AA8000109BF6EC70EBC6EBD8E000EAA6E000E89
:100AB800A66E000E0F01256F000E216FFC0EAD16FD
:100AC800F30EAD16CF0EAD163F0EAD16AB88AB507C
:100AD800F00B0C09AB6EAB8EA788A750F00B0C0976
:100AE800A76EA78E26892651F00B0C09266F268F34
:100AF80022892251F00B0C09226F228F1200000E5E
:100B08000C6E000E0B6E09500A10D8B48EEF05F06B
:100B180090EF05F0B8EF05F0010E0D6E98EF05F0B7
:100B2800D89009360A360D2A0AAE9DEF05F09FEFD8
:100B380005F094EF05F0D8900B360C360950075C99
:100B48000A500858D8A0ABEF05F0ADEF05F0B2EFAA
:100B580005F00950075E0A50085A0B80D8900A32EF
:100B680009320D2E9FEF05F00BC007F00CC008F0FE
:100B78001200DDEF05F014C0D9FF15C0DAFFDF065B
:100B880016C0D9FF17C0DAFFDF06150E186EC60E9D
:100B9800E82EFED7182EFCD700D014C00EF015C0D2
:100BA8000FF096EC01F016C00EF017C00FF096EC9F
:100BB80001F014C0D9FF15C0DAFFDF50D8B4E7EF51
:100BC80005F0E9EF05F0F5EF05F016C0D9FF17C0FD
:100BD800DAFFDF50D8A4F3EF05F0F5EF05F0BFEF2B
:100BE80005F0120010EC06F0010E036E000E60EC2A
:100BF80006F03F0E056E550EE82EFED7052EFCD7E3
:100C080000F0030E036E000E60EC06F0D50E036EC6
:100C1800010E60EC06F012000E01D951F00B080924
:100C2800D96FD98B9F0ED66F848A848CA79BA79D7A
:100C38001D0E1D6F1E0E1C6F1C0E6F6F1B0E706F2E
:100C48001200D59E26C005F0066A05BE06060550A8
:100C58000124D96E06500220DA6E03C0DFFF262A6F
:100C6800000E026E000E016E12000E01D8B53FEFA5
:100C780006F041EF06F039EF06F0DACE01F01F0E6C
:100C88000116D8A44AEF06F04CEF06F039EF06F04B
:100C9800120001500302F3CF05F0F4CF06F0015023
:100CA8000402F350062602500302F350062605C03C
:100CB80001F006C002F01200046EA7EC06F0520E16
:100CC80096EC06F00450800996EC06F0035096EC7A
:100CD80006F0A2EC06F0120025C004F0056A04BE76
:100CE800050604500124D96E05500220DA6E03C0AF
:100CF800DFFF252A12000101DD6BDC6B266A256AFD
:100D0800246A236A226A216A27902792000116EF33
:100D180000F0D6501F0B4009D66ED688F00ED616B6
:100D2800D5881200026E39EC06F002C0D5FE12001A
:100D38000E01298BF28CF29AF28E120039EC06F031
:100D48000E01DA85120039EC06F00E01DA81120084
:020000040020DA
:10000000FF0FFF0FFF0FFF0FFF0FFF0FFF0FFF0F80
:020000040030CA
:0C000000AAFFFFFF9FFFFFFFFFFFFFFFB5
:00000001FF
