:040000001DEFFFF001
:020000040001F9
:10FE3A00000183EFFFF040ECFFF00E01DA811200BF
:10FE4A0040ECFFF00E01DA851200026E40ECFFF082
:10FE5A0002C0D5FE1200046E20ECFFF0520E2AEC0E
:10FE6A00FFF0045080092AECFFF003502AECFFF05F
:10FE7A0025ECFFF012000E01D8B546EFFFF048EF6F
:10FE8A00FFF040EFFFF0DACE01F01F0E0116D8A402
:10FE9A0051EFFFF053EFFFF040EFFFF012000E01B9
:10FEAA00D951F00B0809D96FD98B9F0ED66F848A66
:10FEBA00848CA79BA79D1D0E1D6F1E0E1C6F1C0E0A
:10FECA006F6F1B0E706F120054ECFFF0010E036E81
:10FEDA00000E30ECFFF03F0E056E550EE82EFED7F1
:10FEEA00052EFCD700F0030E036E000E30ECFFF077
:10FEFA00D50E036E010E30ECFFF01200000E026EFA
:10FF0A00C70E016EB8ECFFF069ECFFF080928892A0
:10FF1A007C9684967C988498000E0F6E010E076E6C
:10FF2A00AA0E0B6E0F0E0C6EA60E0D6E0F0E0E6E37
:10FF3A00000E0A6EC70E096E000E066E010E106ED6
:10FF4A00000E136EC70E126E250E146E0F0E156E6E
:10FF5A00210E166E0F0E176E80827C867C88B1EF9A
:10FF6A00FFF000EF00F07D947D987B9E7F9C859446
:10FF7A008598839E879C050E0E01746F060E766F18
:10FF8A00070E696F080E886FBD508F0B1009BD6E82
:10FF9A00E00EBE16BF50F00B0109BF6EC70EBC6E55
:10FFAA00BD8E000EAA6E000EA66E000E0F01256F02
:10FFBA00000E216FFC0EAD16F30EAD16CF0EAD1668
:10FFCA003F0EAD16AB88AB50F00B0C09AB6EAB8E87
:10FFDA00A788A750F00B0C09A76EA78E2689265171
:10FFEA00F00B0C09266F268F22892251F00B0C097F
:06FFFA00226F228F1200AD
:020000040020DA
:10000000FF0FFF0FFF0FFF0FFF0FFF0FFF0FFF0F80
:020000040030CA
:0C000000AAFFFFFF9FFFFFFFFFFFFFFFB5
:00000001FF
