:0400000012EF00F00B
:100008005A820E0133AB0BEF00F00DEF00F00FEF4B
:1000180000F0564A572A339B5A921100F5EF07F021
:1000280000EC08F00FEC08F0000E026EC70E016E2F
:10003800EAEC05F066EC07F066EC07F086EC07F0F2
:10004800000E0101DB6F000EDA6F000EDD6F000E8F
:10005800DC6F000EDF6F000EDE6F000EE16F000E2A
:10006800E06F000ECB6F000ECA6F000ECD6F000E52
:10007800CC6F000ECF6F000ECE6F000ED16F000E4A
:10008800D06F7E8E7F82798884967C9686840E01D6
:10009800B495849E809288927C9684967C98849865
:1000A800000E0101EB6F010EE36FAA0EE76F0F0E52
:1000B800E86FA60EE96F0F0EEA6F000EE66FC70E27
:1000C800E56F000EE26F010EEC6F000EEF6FC70ECA
:1000D800EE6F250EF06F0F0EF16F210EF26F0F0EFF
:1000E800F36F8EB67AEF00F07CEF00F075EF00F05A
:1000F800A5EC06F005C0D2F106C0D3F11DEC07F05F
:1001080005C0D4F106C0D5F1CDEC06F005C0D6F196
:1001180006C0D7F1F5EC06F005C0D8F106C0D9F154
:10012800E20E196E010E1A6EEB0E1B6E010E1C6E9E
:10013800010E1D6E2BEC05F0640E016E010E026EB1
:10014800010E036EE6EC07F0030E0F6EE80E0E6E5E
:10015800D0C10CF0D1C10DF032EC06F00CC0C8F1E2
:100168000DC0C9F1F5EC06F00101D851055C0C6E23
:10017800D95106580D6EC8C10EF0C9C10FF032EC46
:1001880006F00CC0E0F10DC0E1F194EF00F012EFC1
:1001980000F020EE02F01350D9261450DA22DF5076
:1001A800D8B4D9EF00F0DBEF00F00FEF01F013C087
:1001B800D9FF14C0DAFFDF50156E1550016E026AC0
:1001C80020EE03F01350D9261450DA22DECF03F0C4
:1001D800DDCF04F0C3EC07F001C00CF002C00DF055
:1001E800000E0F6E640E0E6E32EC06F020EE03F079
:1001F8001350D9261450DA22DF50166E0C50165CB4
:10020800176E20EE03F01350D9261450DA22DF506F
:10021800186E32EF01F0000E176E13C0D9FF14C02C
:10022800DAFFDF50156E1550016E026A20EE03F0FA
:100238001350D9261450DA22DECF03F0DDCF04F0B4
:10024800C3EC07F001C00CF002C00DF0000E0F6EF9
:10025800640E0E6E32EC06F00C50186E20EE01F0B3
:100268001350D9261450DA22DF50D8B43EEF01F0EB
:1002780040EF01F062EF01F020EE05F01350D926AF
:100288001450DA22DECF15F0DDCF16F015C0D9FFF5
:1002980016C0DAFF17C0DFFF20EE07F01350D9268B
:1002A8001450DA22DECF15F0DDCF16F015C0D9FFD5
:1002B80016C0DAFF18C0DFFF82EF01F020EE05F06C
:1002C8001350D9261450DA22DECF15F0DDCF16F000
:1002D80015C0D9FF16C0DAFF18C0DFFF20EE07F0FF
:1002E8001350D9261450DA22DECF15F0DDCF16F0E0
:1002F80015C0D9FF16C0DAFF17C0DFFF120011EFD3
:1003080002F0580658284D6E4E6A4DBE4E064D50A6
:100318003724D96E4E503820DA6EDE04D8A497EF11
:1003280001F099EF01F0D0EF01F0390E196E000ECF
:100338001A6E420E1B6E000E1C6E000E1D6E2BEC0C
:1003480005F0590659284D6E4E6A4DBE4E064D5061
:100358004B24D96E4E504C20DA6EDF504F6E506AE7
:100368004F50565C5750800A516E5050800A515871
:10037800D8A0C1EF01F0C3EF01F0A5EF01F0D59EC1
:10038800390E196E000E1A6E420E1B6E000E1C6E90
:100398006CEC06F011EF02F058C04DF04E6A4DBEFD
:1003A8004E064D503724D96E4E503820DA6EDE0492
:1003B800D8B4E1EF01F0E3EF01F011EF02F020EE25
:1003C80039F000EE24F0080EDBCFEBFFE806FCE284
:1003D80020EE42F000EE2DF0080EDBCFEBFFE80632
:1003E800FCE258C04DF04E6A4DBE4E064D503724C3
:1003F800D96E4E503820DA6EDF50CAEC04F0390E50
:100408001E6E000E1F6E420E206E000E216E010E33
:10041800226E60EC04F083EF01F058BE18EF02F092
:1004280016EF02F085EF01F012001EC019F01FC090
:100438001AF020C01BF021C01CF06CEC06F020EE76
:1004480001F01E50D9261F50DA22000EDF6E20EE72
:1004580001F02050D9262150DA22010EDF6E1EC08D
:10046800D9FF1FC0DAFF140EDF6E20C0D9FF21C0EC
:10047800DAFF140EDF6E5FEF02F0680E226EE40EF4
:10048800E82EFED7222EFCD700D01EC0D9FF1FC0F1
:10049800DAFFDF2A20C0D9FF21C0DAFFDF2A1EC019
:1004A80013F01FC014F0CDEC00F020C013F021C0F1
:1004B80014F0CDEC00F01EC0D9FF1FC0DAFF320ED9
:1004C800DE18D8A46AEF02F06CEF02F041EF02F0F8
:1004D80020C0D9FF21C0DAFF320EDE18D8A477EF8A
:1004E80002F079EF02F041EF02F00D0E236EFD0EDF
:1004F800226EA20EE82EFED7222EFCD7232EFAD784
:1005080000D01EC019F01FC01AF020C01BF021C077
:100518001CF06CEC06F012001EC019F01FC01AF097
:1005280020C01BF021C01CF06CEC06F020EE01F09E
:100538001E50D9261F50DA22010EDF6E20EE01F080
:100548002050D9262150DA22000EDF6E1EC0D9FFB6
:100558001FC0DAFF140EDF6E20C0D9FF21C0DAFFFA
:10056800140EDF6ED6EF02F0680E226EE40EE82E4F
:10057800FED7222EFCD700D01EC0D9FF1FC0DAFF3D
:10058800DF2A20C0D9FF21C0DAFFDF2A1EC013F0FE
:100598001FC014F0CDEC00F020C013F021C014F0FF
:1005A800CDEC00F01EC0D9FF1FC0DAFF330EDF60AC
:1005B800E0EF02F0E2EF02F0EEEF02F020C0D9FF28
:1005C80021C0DAFF320EDF64ECEF02F0EEEF02F04A
:1005D800B8EF02F00D0E236EFD0E226EA20EE82E6D
:1005E800FED7222EFCD7232EFAD700D01EC019F032
:1005F8001FC01AF020C01BF021C01CF06CEC06F0E4
:1006080012001EC019F01FC01AF020C01BF021C034
:100618001CF06CEC06F020EE01F01E50D9261F509D
:10062800DA22010EDF6E20EE01F02050D92621508B
:10063800DA22000EDF6E1EC0D9FF1FC0DAFF140ECB
:10064800DF6E20C0D9FF21C0DAFF140EDF6E4AEF3B
:1006580003F0D00E226ECA0EE82EFED7222EFCD74B
:100668001EC0D9FF1FC0DAFFDF2A20C0D9FF21C072
:10067800DAFFDF2A1EC013F01FC014F0CDEC00F023
:1006880020C013F021C014F0CDEC00F01EC0D9FF3B
:100698001FC0DAFF320EDF6454EF03F056EF03F0A9
:1006A8002DEF03F020C0D9FF21C0DAFF320EDF643E
:1006B80060EF03F062EF03F02DEF03F0290E236ED5
:1006C800960E226E7F0EE82EFED7222EFCD7232E02
:1006D800FAD700F01EC019F01FC01AF020C01BF096
:1006E80021C01CF06CEC06F012001EC019F01FC0EF
:1006F8001AF020C01BF021C01CF06CEC06F020EEB4
:1007080001F01E50D9261F50DA22000EDF6E20EEAF
:1007180001F02050D9262150DA22010EDF6E1EC0CA
:10072800D9FF1FC0DAFF140EDF6E20C0D9FF21C029
:10073800DAFF140EDF6EBEEF03F0D00E226ECA0E83
:10074800E82EFED7222EFCD71EC0D9FF1FC0DAFF25
:10075800DF2A20C0D9FF21C0DAFFDF2A1EC013F02C
:100768001FC014F0CDEC00F020C013F021C014F02D
:10077800CDEC00F01EC0D9FF1FC0DAFF320EDF64D7
:10078800C8EF03F0CAEF03F0A1EF03F020C0D9FFD0
:1007980021C0DAFF320EDF64D4EF03F0D6EF03F0A6
:1007A800A1EF03F0290E236E960E226E7F0EE82E1F
:1007B800FED7222EFCD7232EFAD700F01EC019F040
:1007C8001FC01AF020C01BF021C01CF06CEC06F012
:1007D80012001EC019F01FC01AF020C01BF021C063
:1007E8001CF06CEC06F020EE01F01E50D9261F50CC
:1007F800DA22010EDF6E20EE01F02050D9262150BA
:10080800DA22000EDF6E1EC0D9FF1FC0DAFF140EF9
:10081800DF6E20C0D9FF21C0DAFF140EDF6E32EF81
:1008280004F0D00E226ECA0EE82EFED7222EFCD778
:100838001EC0D9FF1FC0DAFFDF2A20C0D9FF21C0A0
:10084800DAFFDF2A1EC013F01FC014F0CDEC00F051
:1008580020C013F021C014F0CDEC00F01EC0D9FF69
:100868001FC0DAFF320EDF643CEF04F03EEF04F005
:1008780015EF04F020C0D9FF21C0DAFF320EDF6483
:1008880048EF04F04AEF04F015EF04F0190E236E58
:100898005A0E226EB20EE82EFED7222EFCD7232E39
:1008A800FAD71EC019F01FC01AF020C01BF021C0D3
:1008B8001CF06CEC06F0120020EE01F01E50D92658
:1008C8001F50DA2222C0DFFF20EE01F02050D92687
:1008D8002150DA2222C0DFFF9BEF04F0D00E236EF6
:1008E800CA0EE82EFED7232EFCD71EC0D9FF1FC084
:1008F800DAFFDF2A20C0D9FF21C0DAFFDF2A1EC0B5
:1009080013F01FC014F0CDEC00F020C013F021C08C
:1009180014F0CDEC00F01EC013F01FC014F0CDECA5
:1009280000F020C013F021C014F0CDEC00F01EC080
:10093800D9FF1FC0DAFF320EDF64A5EF04F0A7EF7E
:1009480004F072EF04F020C0D9FF21C0DAFF320EA4
:10095800DF64B1EF04F0B3EF04F072EF04F0110EAE
:10096800246E3C0E236ECB0EE82EFED7232EFCD72A
:10097800242EFAD700F01EC019F01FC01AF020C0AC
:100988001BF021C01CF06CEC06F01200366E020E53
:100998003618D8A4D2EF04F0D4EF04F0DEEF04F058
:1009A800240E1E6E000E1F6E2D0E206E000E216E80
:1009B80019EC02F0030E3618D8A4E5EF04F0E7EFBF
:1009C80004F0F1EF04F0240E1E6E000E1F6E2D0EC3
:1009D800206E000E216E90EC02F0040E3618D8A49A
:1009E800F8EF04F0FAEF04F004EF05F0240E1E6EA1
:1009F800000E1F6E2D0E206E000E216EEDEC03F022
:100A0800050E3618D8A40BEF05F00DEF05F017EF1B
:100A180005F0240E1E6E000E1F6E2D0E206E000EA9
:100A2800216E79EC03F0060E3618D8A41EEF05F0F7
:100A380020EF05F02AEF05F0240E1E6E000E1F6E43
:100A48002D0E206E000E216E05EC03F0120020EE34
:100A580002F01950D9261A50DA22010EDF6E20EE64
:100A680002F01B50D9261C50DA22010EDF6E20EE50
:100A780001F01950D9261A50DA221DC0DFFF20EEE6
:100A880001F01B50D9261C50DA221DC0DFFF6AEF87
:100A980005F0D00E1E6ECA0EE82EFED71E2EFCD70D
:100AA80019C0D9FF1AC0DAFFDF2A1BC0D9FF1CC042
:100AB800DAFFDF2A19C013F01AC014F0CDEC00F0E9
:100AC8001BC013F01CC014F0CDEC00F019C0D9FF06
:100AD8001AC0DAFF1F0EDF6074EF05F076EF05F03D
:100AE80082EF05F01BC0D9FF1CC0DAFF1E0EDF64C1
:100AF80080EF05F082EF05F04DEF05F01D04D8A456
:100B080088EF05F08AEF05F08BEF05F0D55012005D
:100B180020EE01F01E50D9261F50DA2222C0DFFF36
:100B280020EE01F02050D9262150DA2222C0DFFF22
:100B3800C7EF05F0D00E236ECA0EE82EFED7232E7F
:100B4800FCD71EC0D9FF1FC0DAFFDF2A20C0D9FF9B
:100B580021C0DAFFDF2A1EC013F01FC014F0CDEC4D
:100B680000F020C013F021C014F0CDEC00F01EC03E
:100B780013F01FC014F0CDEC00F020C013F021C01A
:100B880014F0CDEC00F01EC0D9FF1FC0DAFF320E02
:100B9800DF64D1EF05F0D3EF05F09EEF05F020C03C
:100BA800D9FF21C0DAFF320EDF64DDEF05F0DFEF99
:100BB80005F09EEF05F01EC019F01FC01AF020C006
:100BC8001BF021C01CF06CEC06F012007D947D989F
:100BD8007B9E7F9C85948598839E879C050E0E013D
:100BE800746F060E766F070E696F080E886FBD501A
:100BF8008F0B1009BD6EE00EBE16BF50F00B010939
:100C0800BF6EC70EBC6EBD8E000EAA6E000EA66E1D
:100C1800000E0F01256F000E216FFC0EAD16F30EAE
:100C2800AD16CF0EAD163F0EAD16AB88AB50F00B20
:100C38000C09AB6EAB8EA788A750F00B0C09A76EFA
:100C4800A78E26892651F00B0C09266F268F22893C
:100C58002251F00B0C09226F228F1200000E116E28
:100C6800000E106E0E500F10D8B43DEF06F03FEF97
:100C780006F067EF06F0010E126E47EF06F0D89007
:100C88000E360F36122A0FAE4CEF06F04EEF06F076
:100C980043EF06F0D890103611360E500C5C0F500A
:100CA8000D58D8A05AEF06F05CEF06F061EF06F099
:100CB8000E500C5E0F500D5A1080D8900F320E3225
:100CC800122E4EEF06F010C00CF011C00DF01200FD
:100CD8008CEF06F019C0D9FF1AC0DAFFDF061BC077
:100CE800D9FF1CC0DAFFDF06150E1D6EC60EE82EF2
:100CF800FED71D2EFCD700D019C013F01AC014F06F
:100D0800CDEC00F01BC013F01CC014F0CDEC00F0CB
:100D180019C0D9FF1AC0DAFFDF50D8B496EF06F031
:100D280098EF06F0A4EF06F01BC0D9FF1CC0DAFF4D
:100D3800DF50D8A4A2EF06F0A4EF06F06EEF06F09D
:100D480012001FEC08F0520E09EC08F0B60E09EC80
:100D580008F015EC08F0530E09EC08F0010E45EC0C
:100D680007F0076E07500A6E0B6A000E45EC07F095
:100D7800076E0750096E086A0A5008100A6E0B5071
:100D880009100B6E1AEC08F00AC005F00BC006F04B
:100D980012001FEC08F0520E09EC08F0B80E09EC2E
:100DA80008F015EC08F0530E09EC08F0010E45ECBC
:100DB80007F0076E07500A6E0B6A000E45EC07F045
:100DC800076E0750096E086A0A5008100A6E0B5021
:100DD80009100B6E1AEC08F00AC005F00BC006F0FB
:100DE80012001FEC08F0520E09EC08F0B40E09ECE2
:100DF80008F015EC08F0530E09EC08F0010E45EC6C
:100E080007F0076E07500A6E0B6A000E45EC07F0F4
:100E1800076E0750096E086A0A5008100A6E0B50D0
:100E280009100B6E1AEC08F00AC005F00BC006F0AA
:100E380012001FEC08F0520E09EC08F0BA0E09EC8B
:100E480008F015EC08F0530E09EC08F0010E45EC1B
:100E580007F0076E07500A6E0B6A000E45EC07F0A4
:100E6800076E0750096E086A0A5008100A6E0B5080
:100E780009100B6E1AEC08F00AC005F00BC006F05A
:100E88001200036EAFEC07F00E01DA87AFEC07F043
:100E9800D5CE04F0AFEC07F00350D8B456EF07F006
:100EA8005AEF07F0026A022A5BEF07F0026A023A79
:100EB80002460E01DA510218DF0B0218DA6FDA89DE
:100EC8000450120086EC07F0010E036E000ED6ECFB
:100ED80007F03F0E056E550EE82EFED7052EFCD7FF
:100EE80000F0030E036E000ED6EC07F0D50E036E6D
:100EF800010ED6EC07F0869E879281987E9E7F929F
:100F0800799812000E01D951F00B0809D96FD98BC5
:100F18009F0ED66F848A848CA79BA79D1D0E1D6F7C
:100F28001E0E1C6F1C0E6F6F1B0E706F1200D59E6D
:100F380059C005F0066A05BE060605500124D96E9B
:100F480006500220DA6E03C0DFFF592A000E026E37
:100F5800000E016E12000E01D8B5B5EF07F0B7EF1D
:100F680007F0AFEF07F0DACE01F01F0E0116D8A494
:100F7800C0EF07F0C2EF07F0AFEF07F01200015023
:100F88000302F3CF05F0F4CF06F001500402F3504A
:100F9800062602500302F350062605C001F006C0DB
:100FA80002F01200046E1FEC08F0520E09EC08F073
:100FB8000450800909EC08F0035009EC08F01AEC19
:100FC80008F0120058C004F0056A04BE0506045073
:100FD8000124D96E05500220DA6E03C0DFFF582ABB
:100FE800120000EE52F0080EEE6AE806FDE15A9093
:100FF8005A92000114EF00F0D6501F0B4009D66E2C
:10100800D688F00ED616D5881200026EAFEC07F01F
:1010180002C0D5FE12000E01298BF28CF29AF28ED4
:101028001200AFEC07F00E01DA831200AFEC07F004
:101038000E01DA851200AFEC07F00E01DA8112001A
:02104800120094
:020000040020DA
:10000000FF0FFF0FFF0FFF0FFF0FFF0FFF0FFF0F80
:020000040030CA
:0C000000AAFFFFFF9FFFFFFFFFFFFFFFB5
:00000001FF
